:0200000407FCF7
:10000000306EFC07BD01FC07C501FC07DD01FC07E4
:1000100000000000000000000000000000000000E0
:10002000000000000000000000000000F501FC07D7
:100030000000000000000000F701FC07D51DFC07D0
:10004000752AFC07B32AFC07A526F0073B12FC071C
:10005000A71BFC07FB01FC070120FC07FB01FC07B9
:10006000E52BFC07FB01FC07CD10FC07D110FC07BA
:10007000D510FC07D910FC07DD10FC072D1AFC0772
:100080005511FC07FB01FC07FB01FC07FB01FC070A
:10009000FB01FC07FB01FC07FB01FC07FB01FC0764
:0800A000000000008E070E00B5
:0200000407FCF7
:100110000448854605F002FF004800475903FC07E4
:10012000C046C046306EFC0710B51F480189C9089B
:10013000C9000181018A1D4CC90713D0808800289D
:1001400010D11B481949428820310A8182888A804F
:10015000C2880A80618AFF22813200889143C001EF
:10016000014361821349062008800F2000F00EF839
:10017000012000F00BF8002000F008F8608904214D
:10018000884360810020208062B610BD002809DB12
:10019000C106C90E0120884007490860BFF34F8F90
:1001A000BFF36F8F70470000000300500000005045
:1001B000A000FC070034005080E100E00F488047B9
:1001C0000F48004704207146084203D0EFF309802E
:1001D0000C490847EFF308800A4908470420714694
:1001E000084203D0EFF3098007490847EFF308807E
:1001F00005490847FEE7FEE7FEE7FEE72901FC07A1
:100200001101FC079902FC070D02FC0710B504461A
:100210001E484089C00508D51B2000F091FE1B48F0
:1002200060300188012211430180052212071088E5
:10023000518A0007800FFF2381339943C001014396
:10024000518213492068086060684860A06888602F
:10025000E068C8602069086160694861A0698861D8
:10026000E069C8610C620B48836A4B62C36A8B62A7
:10027000036BCB62C36B0B63436B4B63806B886315
:10028000908AC00601D500BE10BDFEE720000050D8
:100290000090FC0700ED00E070B5052504462D0731
:1002A000288A04210843288228894021084328817C
:1002B00024480126066024490820088023484089F4
:1002C000C00507D51B2000F03BFE204860300188A8
:1002D000314301802888698A0007800FFF2281321C
:1002E0009143C0010143698219492068086160682F
:1002F0004861A0688861E068C86120690862606937
:100300004862A0698862E069C8620C631148826A29
:100310004A63C26A8A63026BCA63C26B0C4940318A
:100320000A60426B4A60806B8860A88AC00608D564
:1003300000BE688A012180088000C90308436882E2
:1003400070BDFEE780E200E0003300502000005066
:100350004090FC0700ED00E008B500F0D4F800F094
:10036000DFFB01250026052424070FE0284600F0C6
:1003700081FA0421684600964DF7E0FB002801D081
:1003800000F03BFB03F0AAF900280BD020890006FF
:1003900008D501208007006B000403D4A248007830
:1003A000C00713D003F0C9F90028EFD100F068FBB3
:1003B0000028EBD072B602F057FC042810D00228B7
:1003C00015D0032813D001281ED022E05DF715F8C0
:1003D000002000F04FFA954800780428D2D1C5E7F4
:1003E00093480078012801D0032000E0022000F0AB
:1003F00050F8A08AC00602D58E490820088030BF78
:10040000A08A00F008F804E000F03AFB002800D0D1
:1004100030BF62B6BAE710B500F009FA8649022883
:100420000CD105200007408AC005820F8348028056
:100430000A8942808A8882800A88C280488960212D
:10044000C00500280ADB7C4860300088C00705D062
:10045000794A2032508A88432030508278488288F6
:100460008A43203282807748C078002807D07648B7
:10047000006801898AB2416803205CF71FF902F025
:1004800009FE03F05DF9714801690422914301619D
:1004900010BD38B569460524087005462407208A32
:1004A000042108432082284600F066F8284603F01D
:1004B00046F961484189CA056021002A05DB5E4B87
:1004C00020335A8A8A4340325A825D4A93888B434A
:1004D00040339380022D01D0032D13D18188490828
:1004E00049008180002000900099491C0091142946
:1004F000FADB618989088900491C618161894906A3
:10050000FCD5608038BDF0B551485249052301271C
:10051000514A884201D31C4604E0904201D33C4634
:1005200000E000244D4D4E4E4648AD194D4E8470AE
:10053000AD190126B6034560B54201D8142500E087
:1005400000252540484C45708C4213D2474B254628
:10055000EB18944205D38B4201D211230AE03B46AB
:1005600008E0934201D2142304E08B4201D210230D
:1005700000E000230370F0BDF8B5022801D0032885
:1005800048D1324A136904210B4313612C4A203AA3
:1005900093895B085B00938105241022294E240770
:1005A00002287578608A36D010436082608A0843DA
:1005B00060827068C01C870800F088FF608A102184
:1005C000084360822A487F1E0762EFF310800121F2
:1005D00081F310882188802291432180002800D057
:1005E000012080F3108814484089C0050AD500F026
:1005F0005BFF0B2000F0A4FC0F4860300188012253
:100600001143018003205CF77FF8002806D0012009
:10061000F0702583F8BD90436082F3E70020F0700E
:1006200030780540F5E7000054BAFC07F48CFC076D
:10063000B4BAFC070033005020000050A000FC07B3
:1006400020030050C08BFC0758B9FC0700ED00E008
:10065000C08BFC070070FC070040FC071001FC0782
:1006600064660000000004F8306EFC070C04000013
:100670000000F407704770B50D46002442F73FF9BB
:100680002855641CE4B2202CF8D3002070BD10B5AE
:100690005EF720FD10BD10B55EF725FD10BD0521EC
:1006A0000907488A012280088000D203104348824B
:1006B000704770B5064614460D460B4800F0ECFD39
:1006C0002246294630464DF756FC70BD10B54FF70F
:1006D000E2F8054800F0FDFD10BD10B54DF7CDFE68
:1006E000014800F0F6FD10BD001000505848017898
:1006F000002902D0802141707047564900200870BF
:100700005549C870704752490A78002A03D000281A
:100710000CD002200BE0002801D0022000E00120D4
:100720004C4908704C490120C87070470120803046
:1007300048707047F0B594460A46484908269E46D8
:100740000E8072B605242407218A042529432182BC
:10075000278980218F432781278940210F432781C3
:100760003F490D80A1886F02B943A1803D4F691FA9
:100770003960A18AC906FCD4618AFF278137B94351
:10078000618239490F8A7F087F000F82374F3B69AA
:100790002B433B61278BBF08BF0007432783208B78
:1007A0000C27B843920010432083208B30229043C3
:1007B0006246120110432083208A012210432082C6
:1007C00088899043724610438881274820300188E9
:1007D0000F229202114301800188012292031143EA
:1007E0000180234949896022CB0521492031002B12
:1007F0004B8A07DA934320334B82018889088900AA
:10080000891C04E013434B820188032319430180B0
:100810000188314301800188A94301808188914387
:100820004031818000BF00BF00BF30BFF0BD09492B
:1008300000200978002904D0012903D0022900D121
:1008400002207047012070470148C07870470000BF
:10085000C88BFC07B4BAFC0754BAFC07003300503D
:100860000002005080E200E00003005000ED00E0D4
:100870002000005010B5FE4CA178002921D0FD4980
:10088000002803D008884007FCD402E0088840070D
:1008900017D4CA88888811040A180020A070F64866
:1008A00000235043800B401C4008E0611F2040069D
:1008B000492162F7D5FDE162A06264214843000C42
:1008C000A06110BDEB4948800888032210430880CE
:1008D0000888042210430880E54901208870704789
:1008E00070B50520000701893022914301810189FB
:1008F0008022114301810189082211430181DF49CE
:100900000A88520852000A8043891822934343817F
:10091000048940231C430481048A0425AC430482D7
:10092000848AA407FCD5D24DAA246C61CD88012409
:100930000F263602B5430B263602AD19CD80CD8881
:100940002543CD8044899443083444814A88520821
:1009500052004A8001899943018101208007016882
:10096000821591430160C64801683F2252029143BB
:10097000421489180160016802031143016070BDCF
:1009800010B5BB490122D203C969904205D305F0D5
:10099000D7FA8905800A084310BD4843800A10BD74
:1009A000EEE710B5B24989694843B6494018490095
:1009B0005EF728FB10BDF4E770B500F0DCFF0446DD
:1009C000FFF7F9FFAA4D288120463C30FFF7F3FFDF
:1009D000AD49001D48602A891018C01DAB4A086047
:1009E0001278022A01D111300860FFF7D9FFA84917
:1009F000401880B25CF792FD70BDF0B5A54985B096
:100A00000120C863C86B0028FCD101208007C069A1
:100A1000974C2169884201D2002121611922411A93
:100A2000D20191422AD320619B48018803914188D9
:100A300002918788C688994903C900900191684648
:100A400001F0ABFA01F0F7FA0546012020567F28A5
:100A50000CD0281A40B2002801DA404240B20828DF
:100A600005DBE068401CE06001F0F4FE65708A4838
:100A7000029941808780C6800399018005B0F0BD4E
:100A800010B5874801240078C00705D08548417D0E
:100A900001290CD1007D06E005205CF7F1F9002862
:100AA00005D18148807A002802D0032800D0002494
:100AB000204610BD10B57D4900200860FFF77CFF7F
:100AC00001208007016B49004908016310BD08B58A
:100AD0006749888069498A88520852008A800022C2
:100AE00000920099491C00911429FADB052109079D
:100AF0004B899B089B005B1C4B814B895B06FCD59B
:100B00004880E120C0000092521C00928242FBDB30
:100B1000488980088000488148890006FCD508BDC6
:100B2000F8B563480826068000F050FA614CA188A9
:100B3000684601800088C046C04668460088042395
:100B400098433ED00020A0805A48203001880F22D0
:100B5000920211430180494A2032518A3143518225
:100B6000464960310C880625AC430C800588CC01D1
:100B700025430580558AA5435582948A0E25AC43AA
:100B8000A41D94823D4C6589EF054B4D0F881DD502
:100B9000AF4315017D190D800D880F022D052D0D18
:100BA000ED190D8005883543058005889D43058036
:100BB0000D886D086D000D8001884025A9430180D6
:100BC00020E0208A400840002082BDE7AF43032593
:100BD0006D027D190D800D880F273F033D430D8069
:100BE0000588B543058005889D430580968A0325C1
:100BF0006D02AE4396820D88012635430D806189D2
:100C00004907FCD50188032529430180518A6025C5
:100C1000A943203151828188A9432031818001205C
:100C2000134E052530702D07E88AC0218843803097
:100C3000E882208A000A00022082208B1C2188433F
:100C4000083020831D480380A8880121C9028843F9
:100C5000A88048011A49086000F038FC022000F022
:100C6000FAFB184C2069C0B2AA286DD001202BE0F5
:100C7000D08BFC070016005011110100200000501D
:100C80000002004020A107007C67FC07B4BAFC0703
:100C9000E2040000C0000040001500500C62FC0798
:100CA000FDB9FC0788BDFC0750BDFC07A8B9FC07CF
:100CB0000033005000030050000F000000020050FD
:100CC00080E200E0C07FF80729880C229143800071
:100CD00001432980C046C046204800F0E3F800F0F8
:100CE000D1FC00F045FE002830D000F041FEFFF7B7
:100CF000EEFE7F20707000F080FC00F035F802F00E
:100D0000C9F9012041F701FEFFF7EAFD1448006828
:100D100041F7A0FA13490020C8700871012080072C
:100D200001688215114301601E20FFF7CBFD0120F1
:100D3000FFF7A0FDFFF7DAFC02F0FCF9FFF7BAFEBF
:100D4000012004F0DDFDF8BD032090E72069C0B26A
:100D5000AA2801D06E20CAE78020C8E7F08BFC07E4
:100D60004CB9FC0754BAFC0770B5304E304C92B009
:100D70002046304935685EF7D8F907212E48090228
:100D80005EF7D3F9356004F079FD2D492B480860F2
:100D90002C480025058030222B492C485EF7ACF901
:100DA00026490822083903C91191109010A9284832
:100DB0005EF7A2F921494022283168465EF79CF986
:100DC0004022694623485EF797F903F01BFF22494A
:100DD00001200870224A21491160234A21491160EB
:100DE000234A22491160234A0A2111702249234AC9
:100DF0000D7032211170224A05211160214A1060C4
:100E00002148016021490620086021490720086027
:100E1000204908200860FF201F49073008601F494B
:100E200008601F48046012B070BD00005CBAFC0787
:100E300000A0FC07AC14000000B9FC071C62FC0712
:100E400060BAFC07008CFC077CFCF10700BAFC07C9
:100E5000DAB9FC07B0BCFC07FDB9FC07603FF2073C
:100E600050B9FC07A45FFC0754B9FC072061FC07DC
:100E700058B9FC07B0B9FC07B1B9FC07D9B9FC07F0
:100E80005CB9FC0760B9FC0764B9FC0768B9FC07EA
:100E90006CB9FC0770B9FC0748B9FC0744B9FC07FA
:100EA0004CB9FC0710B5062201495EF725F910BDC3
:100EB000D47FF80705200007018830221143018004
:100EC0000188032211430180704705200007018833
:100ED0003022914301800188890889000180704790
:100EE00036490A8B03231B029A43000202430A83FA
:100EF000704733498A8A03235B029A43C3085B0223
:100F00001A438A828A8A0723DB0240079A43800CAD
:100F100002438A822A48403001880122114301801D
:100F20002748203841894907FCD570472448818AE1
:100F3000808A4905890F8004400FC900081870474E
:100F40001F498A8A03235B029A43C3085B021A4340
:100F50008A828A8A0723DB0240079A43800C024375
:100F60008A82704710B50446154820384089C0056C
:100F700002D40120C04310BD00F093FA002806D02F
:100F8000FFF7D4FFA04202D90020C04310BD0C4897
:100F9000408AC00408D40B480088000704D4082CF9
:100FA00002D20420C04310BD0748012104704170E3
:100FB0002046FFF79EFF002010BD000020300050AB
:100FC00040000050200300508467FC07704710B5B4
:100FD0005A4C40010019490008181A43C28010BD3C
:100FE000564A4001801849000818C088C006C00E43
:100FF0007047524A4001801801228A40828070471F
:101000004E4A4001801801228A404280704770B5E4
:1010100006460498144600280D46304602D0FFF7D5
:10102000EFFF01E0FFF7E5FF224629463046FFF7D4
:10103000CEFF70BD10B5414BD88B01248C40A0432E
:101040008A400243DA8310BD3C4A40018018008880
:1010500001228A40104000D00120704708B538A214
:1010600012680092002805D168460078884201D3B2
:10107000012008BD002008BD70B5012421460A38B2
:1010800081400D4688B200F049F884402D48C1895E
:10109000A9430C43C48170BD10B504460A38042826
:1010A0000AD82046FFF7E8FF2749A00040188038FB
:1010B000806D002801D0804710BD002CFCDBE106CC
:1010C000C90E012088402149086010BD0A20E3E7CD
:1010D0000B20E1E70C20DFE70D20DDE70E20DBE74A
:1010E00030B5D4014D1C2C43002805D10B2903D861
:1010F000012A01D8002C00D100BE5D06144B6D0EF4
:101100005D80002803D10B2901D8012A00D90024D1
:101110001C8030BD0E4900200880704700280BD08D
:10112000411E4840C003010C002002E04908401C59
:1011300080B20029FAD1704710207047003000506B
:101140000B00000000140050048CFC0780E200E05B
:101150004000005010B5FFF7B8FE05221207908836
:101160002049000504D5204B1C880520A04311D040
:101170009088C3061D481FD58388DB071CD00388D1
:101180001B0619D501228280028880239A4302809F
:10119000486822E018880422104318801888400804
:1011A000400018800C68002C05D00220185E995E63
:1011B0000A229A5EA04710BD9288D206FBD582888B
:1011C0009207F8D50288D205F5D5022282800288DE
:1011D000FF2301339A43028088680028EBD08047C0
:1011E00010BD0000188CFC070002005000010050E8
:1011F0008A4930B4884201D0012100E00021242234
:101200005143874A891808E0838ADB07DB0F12D035
:101210000388541C8D68CC81AB54CA898B899A424F
:10122000F2D382885208520082808A69002A02D052
:10123000C88930BC104730BC704710B5794800F001
:1012400069F810BD38B5754B984201D0012400E013
:10125000002424256C43724D64190125A577E1779C
:1012600011462022115500220092984201D10123FB
:1012700000E00323E07F0022FFF7C9FE38BD674985
:10128000884201D0012000E0002024214843644925
:101290004018002181777047604908B5884201D025
:1012A000012200E0002224235A435D4BD218937F91
:1012B000002B0DD000230093884201D1022300E0CF
:1012C00004232020815CD07F03221202FFF79FFEBF
:1012D00008BD524908B5884201D0012200E0002231
:1012E00024235A434E4BD218937F002B11D0838A6C
:1012F0009B09DB07DB0FFAD000230093884201D162
:10130000012300E003232020815CD07F0022FFF72F
:101310007EFE08BDF8B5414D414E044620890007C8
:10132000000F062827D009DC012843D002281ED050
:101330000428F3D12046FFF75BFFEFE707282AD008
:101340000C28EBD1AC4201D0012000E00020242188
:10135000484387192046FFF74BFFA18849084900F9
:10136000A180B9690029D9D0F8898847D6E72046F5
:1013700000F021F8D2E72046AC4201D0012100E084
:1013800000212422514389190A69002AC6D0818A82
:101390009E2319400CE02046AC4201D0012100E020
:1013A00000212422514389190A69002AB6D001215B
:1013B0009047B3E7F8BD194930B4884201D0012104
:1013C00000E0002124225143154A89180EE00389C8
:1013D0001B069B0F032B1BD0838A9B06DB0F002B66
:1013E0001BD0531C0C68CB80A25C0280CA888B88FF
:1013F0009A42ECD3828802239A4382808288802397
:101400009A4382804A69002A07D0888830BC1047F6
:101410007C231B5A9B07DB0FE1E70CE70010005011
:10142000248CFC070011005010B50446FFF77EFD28
:10143000A04202D22046FFF783FD8B480188C907EE
:1014400008D1018801221143018087486038418911
:101450004907FCD510BD38B5844C054620684107C6
:10146000490F684601700078854219D07E4860387F
:101470004089C0050CD5A81E03005DF791FE050448
:101480000604040409000B2000E01320FFF7CCFF42
:101490002068C008C0002843206060684007FCD571
:1014A00038BD734800787047714900200870704754
:1014B000052109070988090600D400BE80006D498E
:1014C00009586A4801616C494161704710B5EFF3F2
:1014D0001084012080F31088634860384089C0057B
:1014E0000BD5634901200870FFF720FD63490870A0
:1014F0005D480088C007C00F4870052000070188BC
:1015000080221143018059480168C908C90001605F
:1015100041684907FCD50320FFF7CAFF002C03D020
:10152000012080F3108810BD0020FAE770B5054651
:1015300005200007008816460C46000600D400BEB1
:10154000A01901214903401E884200D300BE032098
:10155000FFF781FF0020454907E004CDCA608C6099
:10156000641C4A689207FCD5401CB042F5D3486819
:10157000C007FCD070BD70B5054605200007008887
:1015800016460C46000600D400BE1846FFF763FF5F
:101590000020FF21C9040AE0A3005B182A681B6829
:1015A0009A4201D0002070BD401C641C2D1DB04229
:1015B000F2D3012070BD70B50646052000070088F3
:1015C00014460D46000600D400BE3046FFF7AEFFBD
:1015D0000423224629463046FFF7CDFF00280BD0D2
:1015E0000523224629463046FFF7C5FF002803D0D1
:1015F0000320FFF730FF012070BD70B5EFF31084BA
:10160000012080F3108805210907088880221043F3
:10161000088016480368DB08DB00036043685B074B
:10162000FCD5174B0361144B436108889043088035
:101630000D4860384089C0050ED50D4900200F4D7A
:1016400008702878FFF77CFC6878002804D10648E9
:101650000188490849000180002C03D0012080F353
:10166000108870BD0020FAE7800000500000F407E9
:101670006C8CFC078462FC07090404A48467FC07E3
:101680000F009909F0B5C44C89B00020207660762F
:1016900003900120C046C046C0480169C04881424D
:1016A00002D0C01709B0F0BDBC4F0425403FE81977
:1016B000016D0191090F092910D0012201989207AB
:1016C00090427AD3B74A904277D8B74908358842D2
:1016D00074D1E819C16CB5484180A6E0019A01991E
:1016E0001204C9B2160E112935D007DC0B005DF7C4
:1016F00057FD087474747474740D1F7412390B00E0
:101700005DF74EFD063A4B5D6B60656B207EB20067
:10171000C100A14840380818A049143169185DF784
:10172000EBFC207E8019C0B22076042854D854E007
:10173000607EB200C10098484038081897491030C0
:10174000143169185DF7D8FC607E8019C0B26076EC
:101750000C2841D841E0416D89B20291406D000CE6
:1017600001460490029800F009F9A08004990298BB
:1017700000F00CF9E08030E0416D89B20491406DD9
:10178000000C01460290049800F0F8F820810299BC
:10179000049800F0FBF860811FE0039805A9800021
:1017A00040187E49B200143169185DF7A5FC039812
:1017B0008019039002280FD80FE02BE010E0406D55
:1017C00060820AE0416D74484038016405E0406D74
:1017D0000004000CA08200D100BEB00045194DE00D
:1017E00071492639884203D1E819C06CE0821CE0B7
:1017F0006D49091F884204D1E819C06C6B49888083
:1018000013E06949083988420FD1E819C06C67496B
:10181000C8800AE007292ED008292FD00A292DD008
:1018200006292BD0401C07D000BE5C481030291878
:101830005F48814200D23AE70598A0810698050CDE
:1018400086B22946304600F099F8E08129463046B4
:1018500000F09CF82082207EC10700D000BE400826
:101860002076607EC10700D000BE40086076A18A65
:10187000002905D007E00020C046C0462D1DD4E752
:101880007D21C900A182042800D000BE002009E704
:10189000F8B5414C0025403C3F4F24E0EE00A059F4
:1018A000444988421AD1301900904068800A4004A7
:1018B00014D000F0E3FE092810D9009803224068F4
:1018C0001202014609041040890E0843A15908601C
:1018D000009839494068C001C00D02E030194068E5
:1018E000A15908606D1C387EA842D7DCF8BDF8B558
:1018F000294C0025403C2746403717E0E8000619F0
:101900002E48316981420DD100F0B8FE092809D96D
:101910002B497069084028490988490408433169FE
:10192000086002E03069716901606D1C787EA84230
:10193000E4DCF8BD18490420085E7047164906200B
:10194000085E704714490820085E704712490A2053
:10195000085E70471048808970470F490E20085E66
:1019600070470D491020085E70470B48408A704749
:101970000948C08A70470848808A7047081A0104DD
:10198000890C40180F49401800B27047C2008018F7
:10199000401A0004C0147047B08CFC07C07EF807E2
:1019A000A5A5A5A54C42005028000050A000FC07AA
:1019B000C07FF8074C1000408867FC0738300040B3
:1019C000FFFF01FC0100FFFFC900920089184000E1
:1019D000081819490880194801680902090A4207CC
:1019E00011430160704714480188012211430180AE
:1019F00070471148018849084900018070470E4B23
:101A000058809980DA80704701200D49C003086032
:101A1000704701200A49C00380310860BFF34F8F2F
:101A2000BFF36F8F7047074908607047054800682B
:101A3000002800D000477047003400500CE400E05C
:101A400000E100E0CC8CFC0710B5624A13885B080B
:101A50005B00138013884024A34313801388082459
:101A6000A343C000034313801089800A8002084307
:101A7000108110BD30B5574B1C88012564086400E7
:101A80002C431C801C884025AC432C431C8001291E
:101A900000D101201C882025AC43400104431C8058
:101AA00018881024A0430901084318809888800AE8
:101AB00080021043988030BD30B5EFF310810122D1
:101AC00082F3108805231B079A882024A24322430F
:101AD0009A80002900D0012181F310883D4C6034A8
:101AE000A18949084900A181A189C907C90FFBD172
:101AF0003849002220310A82364A0388938243887B
:101B0000138383889383C3880B8013880625AB4394
:101B1000457A6D002B431380827B002A00D100BEE2
:101B2000C37B002B00D100BE8B8B5B095B01521E77
:101B300013438B830A8B5309C27B5B01521E1343F1
:101B40000B83817A012917D08189C07AFFF77CFF46
:101B5000A189012081430143A181A089C007C00F51
:101B6000FBD01D4801688022090A09021143016067
:101B70001A491020086030BD8289C17A007AFFF7C7
:101B800079FFE5E713486030818949084900818180
:101B90008189C907C90FFBD105210907888820223F
:101BA0009043888070470B4810B5203080890C49DD
:101BB000C96A002901D0884710BD042000F001F84F
:101BC00010BD002805DBC106C90E0120884005496B
:101BD000086070470013005004E400E000E100E0FA
:101BE0008C67FC0780E200E010B57D221202774C82
:101BF000904201D17F2005E0410010465DF702FAD6
:101C0000401EC0B22189C909C9010143218110BD0B
:101C1000EFF31080012181F31088052109078A88DC
:101C200001239B021A438A80002800D0012080F300
:101C300010887047EFF31080012181F3108805218F
:101C400009078A8801239B029A438A80002800D0D2
:101C5000012080F3108870475C498A8892089200BE
:101C600002438A80704730B5012458497C23584A82
:101C7000002803D0012807D002280BD08D889D436F
:101C80001C358D8014740AE08C889C433C348C8015
:101C9000022103E08C881C438C800421117411788C
:101CA000E12300071940C00E0143117030BD70B52B
:101CB0000446FFF7ADFF454D2020288020794007DE
:101CC000400FFFF7D0FF20780007400FFFF7C4FF59
:101CD0002078C107A88880229043090E0843A88075
:101CE0003B4923780878DB0740084000DB0F1843A6
:101CF00008700023AB812B8913432B812278D207F4
:101D000012D12279C0069206520FC00E5201104322
:101D100008706088FFF768FFE079C10728884022D3
:101D20009043490E08432880288820218843288032
:101D3000002070BD2549088820229043088024484F
:101D40002249007840092031888070471F490020CF
:101D5000203188801D490888202290431043088044
:101D6000704770B5194900230A88520952010A8048
:101D70000A880224A24322430A800A880424A24338
:101D800022430A800C880122944314430C80104A99
:101D90001278D5060D4A2C0F2032022C01D3060CE6
:101DA00016811080088B000BC007C00FFAD1012CE0
:101DB00001D910890304280F888B04D0C0180A8B1E
:101DC000D20BFCD170BDC0B2F9E700000012005088
:101DD000D08CFC071C480068002800D000477047E2
:101DE0001A4A13695B085B00136153691B0E1B06DB
:101DF000401E034353619069000E00069061106914
:101E00000223984349000843106110690421884364
:101E10001061106901210843106170470B48816906
:101E2000090E09068161016949084900016170478D
:101E300000B50021FFF7D4FF04480169C903FCD5B0
:101E4000FFF7ECFF00BD0000E48CFC0700E000E0C1
:101E5000AA48018801221203914301807047A748D4
:101E600001880122120311430180642000BF401E3B
:101E7000FCD17047A149CA88D208D2000243CA8067
:101E800070479E49CA8870239A4300010243CA8062
:101E90007047F8B5050049D0984C29782088402231
:101EA00090438901084320806878FFF7EAFF28788B
:101EB000002803D168780009FFF7DCFFE8780426E2
:101EC0000128208833D0B04320802879A1880002DF
:101ED000C9B20143A180E08801274006400F7F027C
:101EE000042826D0FFF7B4FFA8780F2800D900BE39
:101EF00061880F2252029143400201436180687958
:101F000061888908890001436180A87901282088B7
:101F10003BD0B8432080E879072800D900BE61880B
:101F2000FF22C1329143800101436180F8BD3043FB
:101F3000CAE7FFF71AFD72490028088001D17148ED
:101F40000880FFF78CFF20883843208021884020BC
:101F50008143014321806088304360806088C004F1
:101F6000C00C608060880F2149028843084360806C
:101F70006088FF21C1318843FF218131084360809F
:101F80006088800880006080F8BD3843C2E75B4805
:101F90000188012211430180704770B50546574CF6
:101FA000002020802120000160804020A080FFF7D9
:101FB000D1FCA081A189702081434031A1810620FC
:101FC00000F059F82846FFF764FFFFF7E0FF70BD07
:101FD0004A480188490849000180704747480188FC
:101FE000022211430180704700B5FFF7F7FF434815
:101FF00001888907C90FFBD10121C181008A00BD79
:102000003E490120C88140480068002800D00047B0
:10201000704710B500F03CF838494A88D205520F95
:10202000062A01D9062102E04988C905490F06227E
:10203000511AC84010BD10B5FFF7D0FF2F480188D6
:102040008907C90FFBD10121C181008A2C4A2F4980
:102050001288801A7D22D2005043002801DD4A10E8
:1020600002E0002801DA2A4A80185CF7E1FF8011BB
:10207000193040B210BD002809DBC106C90E01208D
:10208000884024490860BFF34F8FBFF36F8F7047BC
:10209000F8B5054619484188090705D5FFF75DFCE5
:1020A0000646FFF75EFC0FE000888009C007C00FFE
:1020B00005D0FFF73FFC0646FFF740FC04E0FFF7C2
:1020C00041FC0646FFF742FC04462804401B124D23
:1020D00071190E465CF796FF07462004001B314637
:1020E0005CF7A6FF391A6800814201D90020F8BDCB
:1020F00028468142FBD888B2F8BD00000015005088
:10210000BC67FC0740760000E88CFC07AA050000CD
:102110002BFDFFFF80E100E0FFFF000029494A8816
:1021200008239A430378DB001A434A804A884078A0
:1021300004239A43800002434A8070470A4610B540
:10214000014610465CF75EFF1E492039401E08819B
:1021500010BDF8B506464078642800D900BE194C79
:10216000203C278964217F1C78435CF74BFF0546A0
:10217000B078642800D900BE784364215CF742FF40
:1021800031780B005DF70CF8070805090D111519DA
:10219000080060812818E082F8BDA08128182083FB
:1021A000F8BDE08128186083F8BD20822818A0833C
:1021B000F8BD60822818E083F8BDA0820149281884
:1021C0000880F8BD20340050F0B5FE48406B7F21F8
:1021D000090288430B2109024018FA494863086A3A
:1021E000F94980B24018F7490862886BF749012223
:1021F00008405203F34980188863F248403001696F
:1022000003231B0219430161818B10242143818325
:10221000EC4820308188012421438180ED49EC483D
:102220000860ED4C20883F21090188432F210901D6
:1022300040182080E84820388169E84D490D49055B
:1022400049198161C169E64D294009256D02491985
:10225000C1614168E34D2940E34D491941608168FE
:10226000E24D2940E24D49198160C168E14D2940A4
:10227000E14D4919C1600169E04D2940E04D49191E
:102280000161E049C514097809064919C1256D01A4
:102290002943DD4D29600525DC49AD020D816D1D09
:1022A0008D81DA4920310D892D0A2D0255350D8198
:1022B0008D25AD000D82D64D8D82D64D0D83D44D2A
:1022C0000E3D8D83D349D14DC91D40352980D2495A
:1022D000A181C16BD14C2140D14C0919C163FF20B0
:1022E000D04C6C302080CF482030068B1F21490114
:1022F0000B258E43AD0176190683CA484030868887
:1023000009278E43BF01F6198680068915278E435B
:102310007F01F619068186898E4371198181FF201C
:102320008D30A080BF4880300189E024A14319434B
:102330000181818B4909490119318183B2482030DB
:10234000818B5B01994389188183AF488030016894
:10235000C908C900C91C0160AB49B3484031486293
:10236000F0BDA94908B500208031C8620090401C2A
:102370000090FF28FBDDAD480078AA49C006820D19
:102380004031C8681F235B0198431043C86008BDF3
:10239000A7488C490068403108608A4881698909EA
:1023A00089011C3181618169C21391438161016B93
:1023B0003F22120691430722920689180163016B9E
:1023C0003F22920191430F22D20189180163016BD0
:1023D000890989011E31016370477A48C16949083A
:1023E0004900C16170478F4808B54030C1688F4AC5
:1023F0008905C90E1170C1681F2252019143C16045
:1024000081490120887180488030C16A03221143CC
:10241000C16200200090401C0090FF28FBDD08BD39
:1024200008B579490220887100200090401C009076
:102430000B28FBDB08BD634841210177C1690322FA
:102440005202914302158918C16170475D484030BE
:102450000168774A11600021C943016059488169C8
:102460008909890181618169C21391438161C169CF
:102470000322520291430315C918C161C169702337
:1024800099434031C161016B3F231B0699430B23E4
:102490005B06C9180163016B3F239B0199438918AF
:1024A0000163016B89098901183101637047F8B52F
:1024B000554803274771434C6068C009C001143078
:1024C0006060FFF7C3FF43202077FFF7A9FFFFF706
:1024D0008AFF0025261500950098401C0090B04208
:1024E000FADB494903204871364880308068C705C7
:1024F000FF0DFFF736FF00950098401C0090102854
:10250000FADBA0694002400AF9050843A061A0690E
:1025100048490840B9010843A061FFF78CFFFFF765
:102520007FFFFFF760FF00950098401C0090B042CD
:10253000FADB354903204871224880308068C7059E
:10254000FF0DFFF70EFF00950098401C009010282B
:10255000FADBA0694002400AF9050843A061A069BE
:1025600034490840B9010843A061FFF764FFFFF751
:1025700057FFFFF738FF00950098401C0090B042CD
:10258000FADB2149032048710E4880308068C60577
:10259000A069F60D4002400AF1050843A061A06958
:1025A00024490840B1010843A061FFF716FFFFF777
:1025B000EFFEFFF7D6FE00950098401C0090102813
:1025C000FADB39E00030004000008888FF00FEFFA1
:1025D00059055C07800000402020004009581A007F
:1025E000FEE1FFFFE0E000000809294900000303C5
:1025F000696A686C031FFFFF70600000E0E0E0E0C4
:102600000B0A0A08EC8CFC07001000402013004065
:10261000340A000051080000070F00002F64E0FE9C
:10262000101A060100120040500150015467FC07C7
:10263000C067FC073F80FFFF134846810120F8BDBB
:1026400035E7704708B51148082101710021009154
:10265000009A521C0092102AFADB0091491C00914A
:102660001029FBDB0321417108BD0848022181715B
:10267000002181807047064908707047044800783F
:102680007047034840787047C467FC07001000405B
:10269000EC8CFC07002070477047704710B5282865
:1026A00001D2282002E0E62800D9E620FF21F331FC
:1026B00048437D21C9005CF7A5FC8130C0B210BD44
:1026C0007047704710B5022902D0012900D000BE22
:1026D000002802D0FF2802D000BE022902D0FFF756
:1026E000CDFF10BD0C2010BD01218907086B07220A
:1026F000104308638D4801680213914301607047DD
:1027000010B50220FEF7ECFB8848016802039143F4
:102710000160874800214163416B1F2212049143ED
:1027200042138918416301060868F0229043E030A3
:10273000086010BD10B58AB07E4941627E49816251
:102740007E494161002430210C547D49C1627D499C
:1027500001607D4901627D4941607D49C161FFF7AA
:1027600070FF7348416B1F22120491434213891872
:1027700041636E480168C212914301606846045586
:10278000641CE4B2282CFAD301467248282200685F
:1027900040305CF7B1FC0920FFF76DFFFFF771FFD8
:1027A000002802D00120FFF766FFFFF74BFFFFF77D
:1027B0006FF8FFF79CF8FFF707FD00F05BF8FFF7F5
:1027C0009FFFFFF73DFF00F086F8FFF74EFF0AB0CE
:1027D00010BD10B55648416B1F221204914342139D
:1027E0008918416300060168C908C9000160052015
:1027F00000070189082211430181FFF742FF0028E9
:1028000002D00120FFF737FFFFF71CFFFFF740F86A
:10281000FFF76DF8FFF7D8FC00F02CF8FFF770FF1A
:1028200000F038F8FFF721FF012003F069F810BD30
:1028300010B504467022484948485CF75DFC47489B
:102840004830011B45481038018344495C31091B5D
:10285000418310BD10B5FFF7F5FEFFF748F8FFF70D
:10286000B3FC00F007F8FFF7EBFE00F023F8FFF7EA
:10287000FCFE10BD2E4B10B540331868384C0102D9
:10288000090EC2B20A3109040A3220401143014341
:10289000196010BD334A118B3048103083691B0C0E
:1028A0001B040B438361518BC269120C12040A434F
:1028B000C26170472B4A203A118B28481030C368F8
:1028C0001B0C1B040B43C360518B0269120C1204D6
:1028D0000A430261704710B5FFF7ECFFFFF7DAFF1C
:1028E00020482038018A1D4810308268120C1204DA
:1028F0000A4382601B4A40329188036A1B0C1B0406
:102900000B430362D188426A120C12040A434262EA
:1029100014494A88836A1B0C1B0413438362898809
:10292000C26A120C12040A43C26210BD00020040C7
:10293000400000409526FC079926FC07C526FC07A9
:10294000E926FC079B26FC07C126FC07C326FC07DB
:102950009D26FC074CB9FC07A462FC0770A0FC078D
:1029600000FF00FF20300040F8B5A64F04463E7D32
:10297000A54D28E00A203969704308188078400680
:10298000400EC1060DD06968491C6960C10702D0BC
:10299000E968491CE960000712D5A868401CA860D6
:1029A0000EE09A48806B29680001000C002910D0C5
:1029B0002A8A4A43491C101829605CF723FB2882A5
:1029C000761C7607760F2046641EE4B20028D1D12B
:1029D000F8BD288201202860F2E7F8B50125AD078F
:1029E000AC6B2046FDF7DCFF8749894F08394A6800
:1029F000861800204860394630465CF703FB85495D
:102A000048603A465043301A00D0381A80B2086005
:102A1000286B08218843084328637F4804607F4867
:102A20000068002802D0A04200D200BEF8BD10B558
:102A3000FEF74BFA052000074189890703D0418939
:102A40008908890041810189802211430181018A1D
:102A5000042291430182818A8907FCD500F0FCF8A9
:102A6000012080070169490700D500BE01694907B7
:102A7000FCD510BD10B56A4C08202080FEF71AFA6C
:102A800020894007FCD4FEF720FA6648052100881B
:102A9000090748806448654C0088801E60800720D4
:102AA0002080FEF707FA20884007FCD4FFF7BFFF1D
:102AB00010BDF8B55E480168C90703D0016802225D
:102AC000114301600168490204D5016801229205A1
:102AD000114301604C4E0127083EBD072C69002CB4
:102AE0007DD0200606D58020A8614AF7D0FE1E20A2
:102AF000FDF7E8FEA0070AD50220A8614D4800684E
:102B00008030008EC0B2FFF72FFF46F7BEFD2007D2
:102B10001CD50820A861484852220068643081888A
:102B20005143464A12688918FF314131C98BC07E32
:102B3000090A081AC0B2FFF717FF02F04CFE002086
:102B400046F75CFD04203070FFF78FFDE00505D5EA
:102B5000FF200130A861012046F750FDA00504D5F3
:102B600001204002A8614AF7FBFE600603D5402021
:102B7000A86146F73EFDE00603D51020A86145F7A1
:102B8000FBF860071BD50420A86125480189490886
:102B9000490001812A480078C00705D000203FF78E
:102BA000E1FD3FF7A7FD01E03FF78CFD5AF78CFCF4
:102BB0003FF746FD1E20FDF785FE00203070E00740
:102BC00006D00120A8615AF79BFC4AF760FE3770D7
:102BD000A00683D52020A86100BE7FE7FFE7F8BDEF
:102BE0007047704710B51748808A010702D500F07A
:102BF00072FC10BD8107FCD4C007FAD000F070FC55
:102C000010BD000060BBFC07FC8CFC0700200040EE
:102C10007102000040000040188DFC07108DFC0779
:102C200000330050D48BFC07D88BFC0700160050F3
:102C30000002004058B9FC0784BBFC074CB9FC07F4
:102C4000FDB9FC07A010004010B53FF73EFB6F48F0
:102C500080686F49486010BD10B53FF762FB6C4853
:102C60006A494068886010BDF8B5002600F0CAF8CF
:102C7000684D009029790020022900D10090664912
:102C80000989C9070DD159F784FC002809D0E878D3
:102C900001260028FAD005273F07B88AC00701D0CF
:102CA0000426ADE028880028FBD1FDF7CDFD0028E3
:102CB00006D15A48806A002802D000F0A3F800909C
:102CC000FDF77AFEA97868465AF75BFA002865D0C6
:102CD0000124A4072069400660D4A97868464AF711
:102CE0002DFF00285AD04CF7ABFE002855D04BF7EB
:102CF00027FB002851D0A97868465AF742FA0028E5
:102D00004DD0206940064AD44248817868464AF747
:102D100015FF002843D00120FEF7E2F800990029B2
:102D200006D0206AFF383938DA2801D8491E0091C8
:102D30003B4802883B48016850183B4A1060E26BF0
:102D4000920A92020A43E263E16B384A1140384A20
:102D50001568AA021143E163E16BC902C90A400583
:102D60000143E163334A009804260021904200D3D6
:102D700000BE314B0CCB5CF76FF90903000D084323
:102D8000234A401E691C1060884200D1156021480A
:102D90000079002810D001210FE0002630E02748FC
:102DA0000078C00705D000203FF7DCFC3FF7A2FC0D
:102DB00026E03FF787FC23E00021106846F7D4FDAA
:102DC0001F48C06A8047114D206B0004C00FFBD024
:102DD0002868C005FCD528688024A04328600E48D8
:102DE0004189462904D24622164B511A1960428164
:102DF000FFF72AFF28680006FCD53889A0433881F0
:102E00003046F8BD10480068406A70470002004034
:102E1000108DFC0754BAFC070033005074BEFC0749
:102E2000D88BFC078067FC07F067FC07FF03E0FF17
:102E30007C67FC0740420F00F88BFC07FDB9FC07DC
:102E400058BFFC07F88CFC0758B9FC07704770475F
:102E500038B50025B14C0095E178A07801232A46C9
:102E6000FEF7D5F82078A178884203D16178E2781E
:102E7000914206D000950322617802231202FEF7E8
:102E8000C6F838BD70B5A5480125001FC078A44C10
:102E9000002804D001281AD0FEF73CF907E0FEF71D
:102EA00039F900210846FEF79BF8002801D025805B
:102EB00070BD00230122520219461846FEF787F81A
:102EC0000220401C2828FCDB0020208070BD2580CB
:102ED0000021062301220846FEF702F970BD0522F3
:102EE0001207508AC005800F022907D001280ED092
:102EF00002280FD0032809D10A2907D1908AC006D9
:102F0000FCD4508AFF2181318843508270470529C3
:102F1000F4D070470129F1D07047F8B51C4615462A
:102F20000E460746FFF7DBFF21462846FFF7D7FF8F
:102F30007A482946077046708570C470001FC278B1
:102F4000022A0BD0002F03D1002E01D10222C27021
:102F5000B94203D1B44201D10021C170FFF792FF01
:102F60007048AF4206D1A64204D122462946FEF758
:102F700069F9F8BDFEF783F9F8BD10B5674C241F59
:102F80002078002815D16848007803005CF708F91C
:102F900007050F0918141C200F00012300221146F9
:102FA00002E00323002202210020FFF7B6FF0120E8
:102FB0002070FFF74DFF10BD052300220421F3E729
:102FC000032300221946EFE7052300221946EBE709
:102FD000072300220621E7E738B500254F4C00956E
:102FE000E178A0782B462A46FEF711F82078A178E0
:102FF000884203D16178E278914205D000950023A0
:1030000061781A46FEF703F838BD08B508430DD1BC
:1030100042480178002909D14078002806D10122D0
:103020000346520201460090FDF7F1FF08BD08B5C6
:10303000084310D1394A107893781146497898425C
:1030400002D1D278914206D00022009203220223BC
:103050001202FDF7DCFF08BD304A30B4121FD378EE
:10306000022B15D0084313D1101D0378014649786F
:10307000002B03D1002901D10224D47084789C4212
:1030800004D1C078884201D10120D07030BCF9E66B
:1030900030BC7047F8B5214C0026241F204FE67045
:1030A0003E801B20FDF75EFF2048018880252943D4
:1030B000018002F0CDFBFDF708FF1D4908200880C4
:1030C000052000078188294381800188428A0907F9
:1030D000890FFF2381339A43C9010A434282114970
:1030E0000720803108810F4D2E81AE808320A8817A
:1030F0006078002803D1082060700B20A0700322A4
:10310000A17860783FF7D2FA0320A881FFF735FF56
:10311000B989012081430143B981F8BD208DFC07A5
:1031200000030050001000507867FC0700150050A5
:103130000033005010B5FDF7D9FAFF490020487060
:10314000FE4B02221A70FE4A107025228A7032222B
:103150000A814881FB494860C8608860086008822D
:10316000F948016802031143016005210907C88A73
:10317000C02290438030C88210BDF7B51646054680
:10318000002410E0FEF7A2F90198A2001018A90887
:103190000122FEF710FA0746FEF72FFA2D1D002F29
:1031A00003D0641CA4B2B442ECD30020FEBD70B5C1
:1031B00015460E460446FEF789F90220FEF74BF944
:1031C0002A46214630465BF797FFFEF716FA70BD98
:1031D00010B5DE4C0520E062DC490820803908711A
:1031E0000020401CC0B25028FBD3FFF72BFAD24876
:1031F0004078052803D0062804D0072801D10020F4
:10320000E06210BD0320FBE710B5D148007800282C
:103210001ED1052000078188082211438180818802
:10322000CC4A89081278890011438180012200214B
:103230001046FEF7C9FBC8497D2212018800FEF73F
:10324000DEFBC648FEF7EFFBFEF7DEFBFEF7CBFB2F
:1032500010BDBE49886BBE4A137815225206002B5A
:1032600005D0BF4B184353109843104303E0BC4BA9
:10327000DB43184090438863704738B5AE4C6078A4
:1032800000282AD1AE480178684601702521417096
:10329000AA48017868468170FFF7DBFF684647F768
:1032A000E8FBB048016AC21311430162016A0214CB
:1032B00091430162016A821491430162016A490AE1
:1032C0004902016205206070A74910110860BFF330
:1032D0004F8FBFF36F8FFFF797FF38BD10B5964C38
:1032E0006078012808D06078022805D06078052829
:1032F00002D06078072807D19C48806D3FF73BFAE1
:103300000021084659F7A7FD0020607010BD38B5B0
:10331000894C6078002819D1608189480178684615
:103320000170A1784170854801786846817047F73F
:10333000A0FB8E4D05E0684647F79BFB002800D0B8
:10334000FEE7A86D0028F6D00120607038BD38B5C2
:10335000794C607800280ED17A494860C86088604E
:10336000086008827648007869460870684647F722
:103370000DFC0220607038BD70B504464178002510
:103380000078FDF76BFE002800D10125E178A078D8
:10339000FDF764FE002800D10125284670BDF8B570
:1033A000044600267D20000100960099491C0091EA
:1033B0008142FADB6E4D00960023697828781A4620
:1033C000FDF725FE00960023E978A8781A46FDF758
:1033D0001EFEE378A27861782078FFF79EFDFFF764
:1033E00037FDF8BD63490A8A5207D20FFBD0614A04
:1033F000603A1082088A4007C00FFBD00320000209
:103400001082088B8006800EFBD0108AC0B27047F5
:10341000584A138A5B07DB0FFBD0564B603B188280
:10342000FF31FF3102311982108A4007C00FFBD0F3
:10343000108A8006C00FFBD1704770B50D46044658
:10344000FEF778FC2046FEF78CFC2846FEF789FC48
:10345000FEF77CFC70BD10B50446FEF76BFC8020C7
:103460002043FEF77EFC0020FEF77BFCC4B2FEF793
:103470006DFC204610BD014600B500200B005BF737
:103480008FFE0C07090C0F1215181B1E212427088C
:10349000394800BD3848801C00BD3748001D00BDBC
:1034A0003548801D00BD3448083000BD32480A3020
:1034B00000BD31480C3000BD2F480E3000BD2E48F5
:1034C000103000BD2C48123000BD2B48143000BD18
:1034D0002948163000BD18484189491C4181704770
:1034E0001548C188491CC18070471CB5124C012089
:1034F000207022491023096801910090032221794C
:103500001202E078FDF783FD6079002801D00122E6
:1035100000E000222179E078FDF78CFDFEF769FAE2
:103520001748018849084900018005200007818863
:1035300008221143818025E0F467FC072C68FC0712
:103540002D68FC07FC8CFC07000200408010004046
:10355000248DFC075567FC0788130000D131FC0758
:1035600088080000C000004080E100E0B0BBFC071C
:10357000208DFC0760130050063000502063FC07CC
:103580002000005081886A46890812798900114319
:103590008180002211461046FEF716FA7D20C000F9
:1035A000434A0146FEF72BFAFEF71DFA1CBD10B583
:1035B000FEF72FFAFEF71DFA052000078188082282
:1035C0009143818010BD3B4908703B494989C90539
:1035D0000BD4394920318A8A03235B029A4300289D
:1035E00000D00220400202438A827047016800290D
:1035F00001DB0020704701684A003049026800681A
:1036000004D58000800C4018027003E08000800C1C
:10361000401802800120704770B5294D2868FFF7D7
:10362000E5FF00242968A00040180C30FFF7DEFFFA
:10363000002802D0641C092CF4DB00242968A000B7
:1036400040183830FFF7D2FF002802D0641C072C46
:10365000F4DB70BD1CB51B4A516892680091164995
:1036600001924989C90520D5002801D0052000E034
:103670000620694648706846FEF78FFC272000BF89
:1036800000BF00BF00BF00BF00BF00BF00BF00BF42
:1036900000BF00BF401EF2D2FEF7A6FCFEF7B9FC49
:1036A0000446FEF795FC20461CBD0028E0D1DDE76E
:1036B000FFFF0000248DFC072000005000000040A8
:1036C000A062FC072063FC0710B500231E4A1946C0
:1036D0001E4859F78FF94BF785FF10BD70B51C4D8B
:1036E000002428782646012806D11A48806D002833
:1036F00002D12E70FFF70BFE17480188174A128877
:10370000914207D32978012904D10680FFF7DCFF15
:10371000FFF7E4FD59F771FEFDF789F80100104845
:1037200007D001684A1E0260002900DD01242046FE
:1037300070BD012464210160F9E7002070477047E3
:1037400010B5FCF7D3FF10BD0BFE00000108000010
:10375000F567FC07B0BBFC07FE67FC07FC67FC07CE
:103760005867FC073EB50D4D6D1E14D002880A4205
:10377000FAD16D1E0FD002880A42FAD0084A1368A7
:103780000124234313606D1E05D002880A42FAD13A
:10379000044A10683EBD00203EBD0000C0C62D009A
:1037A00010E000E018E000E093490978002900D01B
:1037B000400092494843012102E000BF00BF491C7C
:1037C0008142FAD9704710B58B498A69904202D27A
:1037D000002800D08869CA69904200D9C86900F001
:1037E0007EF90220FFF7E0FF10BDFEB500276A4614
:1037F00001A9029700F00CF9002801D00020FEBDBD
:10380000804C7F4E6661A7612069042108432061D6
:10381000EFF31085012080F3108868460188019835
:1038200000F062F902902069400840002061002DFC
:103830000BD0012080F3108802986F49301A4F7026
:10384000B042DCD101224A70FEBD0020F2E710B583
:103850001C46029B101A1B1B5843511A5BF7E8FBCE
:10386000001910BDF3B5002789B005460420C043F8
:103870000A211423604C3E463A460197029700976E
:10388000002D2CD0012D28D101202070A161AF2066
:103890008000E0615C48A060E16023616E206061AF
:1038A000A069554D24352860E069686060696060F2
:1038B0000A9800F0B4F8001D17D06068FFF783FF86
:1038C0000A98FFF792FF0090A168884210D3A16880
:1038D000401AE16888420BD860680BB0F0BD2270D6
:1038E000A161FA20E0614948D5E70320C043F4E72D
:1038F0000098A168884205D2A0680099401AE16842
:103900008842E9D90098A168884208D96E68686839
:10391000FFF759FF0A98FFF768FF019007E02F684B
:103920002868FFF750FF0A98FFF75FFF0290002515
:103930006D1C0098A168EDB2884202D967680290B8
:1039400001E066680190019902980096884201D9C9
:10395000024600E00A46884200D201463B46A06883
:10396000FFF775FF60606068FFF72DFF0A98FFF7AB
:103970003CFF0090A168884204D3A168401AE16826
:1039800088420BD90098A168884205D2A0680099A6
:10399000401AE168884201D90A2DC9D3607800280D
:1039A00005D00020FFF70FFF0120C04395E7A06876
:1039B000E1680025401A0099ED43884205D8A068C7
:1039C000E16840180099884203D20020FFF7FBFE0F
:1039D0000AE00948203000F07CF8206AA16988429A
:1039E00004D8206A002801D0284676E7206AE169D9
:1039F0008842F9D2206A70E70068FC07F1060000EF
:103A0000FFFFFF0000E000E0007C920000127A005F
:103A1000012383403648086013800020704700B5BA
:103A200003223349120203005BF7BAFB0C070D13A4
:103A3000191F252B31373D434950C8889043FF302B
:103A40000130C88040E008899043FF300130088190
:103A50003AE048899043FF300130488134E088895A
:103A60009043FF30013088812EE0C8899043FF30B9
:103A70000130C88128E0088A9043FF300130088275
:103A800022E0488A9043FF30013048821CE0888A57
:103A90009043FF300130888216E0C88A9043FF309F
:103AA0000130C88210E0088B9043FF30013008835A
:103AB0000AE0488B9043FF300130488304E0888B54
:103AC0009043FF3001308883002000BD0320C043B5
:103AD00000BD0521090749880160002070470521C4
:103AE000090748800020704710B5FFF73BFE10BD66
:103AF0000030005070B518460D4601460223FB4ABF
:103B0000FB4858F777FF04462878FFF7A3FD20808D
:103B100020464BF767FD002070BD10B518460C46D7
:103B20007F22014604235202F14858F763FF2178AF
:103B3000332904D001604BF755FD002010BD05214D
:103B400009074988F6E7E94A10B519460023133AF0
:103B5000E74858F74FFF4BF745FD002010BD70B503
:103B6000E24A19464223123AE14858F743FF0E252C
:103B700004460570DFA1801C02F0C6F9204665707E
:103B8000DCA1223002F0C0F920464BF72BFD0020CB
:103B900070BD38B518460C46D44A01460223113A86
:103BA000D34858F727FF05462178684601706178A9
:103BB0004170A1788170E178C170FFF7DDFB28804A
:103BC00028464BF70FFD2888002802D16846FFF7EA
:103BD000E6FB002038BD10B518460C46C34A014626
:103BE0000823143AC24858F705FF217801700021D4
:103BF000417022786168002A06D0012A06D0022A84
:103C000007D0032A0AD107E0096803E0A2680A6026
:103C100004E00988416001E022890A804BF7E2FC58
:103C2000002010BD70B518460C46B04A014600236E
:103C30000B3AAF4858F7DEFE0546B248217841708E
:103C400061780170FFF719FB28464BF7CBFC002089
:103C500070BD7CB518460C46A44A01460723173AA6
:103C6000A34858F7C7FE0546002000900190207831
:103C700028702078022802D003281BD105E00622F4
:103C8000691CA148FFF793FA14E0217960780906CE
:103C90000843E178A2780904120211430843009016
:103CA000A079617900020843019002226946974891
:103CB000FFF763FA28464BF795FC00207CBDF0B572
:103CC00018460E46894A014685B00223183A8848AC
:103CD00058F790FE0546B17870780902014300203C
:103CE0000390019032780520000713005BF758FA23
:103CF00008050710212A3134340A408801E0418048
:103D000025E028803078062872D0072870D097E008
:103D1000418AC905890F012907D1818AC906FCD4C6
:103D2000418AFF2281329143418279497948018257
:103D30000DE003464088FF22521A824207DB4018FA
:103D4000588004E042888A4201D3511AD7E7002004
:103D5000D7E701214902E9E77478FE2C23D0002738
:103D600002940298FFF787FB009000283ED000885D
:103D7000019021463846FFF7B2F821463846FFF752
:103D80006BF921463846FFF740F9FF2100980131D1
:103D90000180B0780299FFF765FD411C20D0801C9E
:103DA00020D00398ADE75CA00068002700900A20AF
:103DB00078433C4604900CE004980019C0B202908D
:103DC000FFF759FB00880007000F0128C9D0641CC9
:103DD000E4B26846C05DA042EED2FF200290C0E788
:103DE000012000E0022003908BE701E00420FAE7C5
:103DF0000198C006C00E012801D0032820D14748F1
:103E0000029021463846FDF71FF9002804D0029899
:103E1000401E0290401CF4D1404802902146384692
:103E2000FDF712F9002804D10298401E0290401CB0
:103E3000F4D100203A490290401C02908842FBDBFA
:103E400021463846FFF7F3F828464BF7CBFB30788E
:103E5000062801D0072818D10198C006C00E0128F5
:103E600001D0032811D12F4D21463846FDF7ECF83B
:103E7000002804D128466D1EADB20028F4D1009868
:103E8000002802D0009801990180002005B0F0BD03
:103E9000164A10B5194600230A3A154858F7AAFDE4
:103EA000044621480078052809D1FFF780FBFFF779
:103EB00015FA1E490020086220464BF793FB0020AC
:103EC00010BD70B518460C46084A014600230E3A4C
:103ED000074858F78FFD05460A4920784870FFF7D4
:103EE00036FA28464BF77EFB002070BD1AFE000014
:103EF00001080000765F362E302E31362E313134F7
:103F0000340000002C68FC07D47FF807D47F000041
:103F100005030000003000500B00000018F73600C9
:103F2000120E0000B68C0000F567FC07C0000040D0
:103F300010B519460823FE4AFE4858F75BFD0446B3
:103F4000FD48007802280DD1FFF7C8F9FB48018829
:103F50002180818961800189A180008AE0802046DA
:103F60004BF740FB002010BDFEB518460E46F04A48
:103F700001460023521CEF4858F73CFD0190307871
:103F8000EF4CF04FEC4D4F2804D052282FD054283E
:103F900043D119E0FFF70BFB28780026062808D04C
:103FA000072809D1FFF79AF9206A400040082062EB
:103FB00002E0FE62FEF759FBFF20E3490130086092
:103FC000E24908602E7025E0082000F0C6FD7478F4
:103FD000FFF73FF9FFF720FBDA49032080394871EA
:103FE000DB490C43DB494C60F86206200FE00820F7
:103FF00000F0B3FD7678FFF72CF96846067046F7B7
:10400000C5FD206A0121C9070843206207202870E6
:10401000FFF7FAF801984BF7E5FA0020FEBD10B55E
:10402000CD480A784270CD4B4A781A708A7802706F
:104030000879C97800020843C9490880FFF767F981
:10404000002010BD70B518460C460146B84AB94864
:1040500001230C3A401C58F7CDFC002505704BF7A6
:10406000C1FA49F771FF2078002805D0BD4E01281C
:1040700005D002282AD120E0FCF738FB26E0FEF725
:10408000ABFF35706178B848002902D1A1780029CA
:1040900010D0012101716078B44919224843A178F8
:1040A000920151434018B249096848620020FCF768
:1040B0002AFB0BE002210171F8E7FEF78DFF0122D8
:1040C0003570002311461046FCF734FB00200CE746
:1040D000974A10B519460023D21E964858F78AFC15
:1040E0004BF780FA002010BDFEB518460D46904AE9
:1040F0000146F223093A8F4858F77CFC0446288889
:104100000190AD780026002D01D03C2D19D9122048
:104110001AE00198B7003918FF20C00408180422DB
:104120006946FFF744F8694638190978817069468D
:104130004978C1706946897801716946C9784171C9
:10414000761CAE42E5D300202070657020464BF708
:1041500049FA0020FEBDF0B518460C46744A0146E7
:1041600089B00223083A734858F744FC00250646F4
:1041700004950595A778E01C029020880790002FF1
:1041800001D03C2F24D9122025E00299A800029AE0
:10419000095C8018C27843781206114382781B02AA
:1041A00012041A4311430491C27901791206114392
:1041B00082794079120400020243114305910122E1
:1041C00004A90798FEF7D9FF07980830AD1C07909F
:1041D000BD42DAD300203070A078707030464BF7C3
:1041E00001FA002009B0F0BDF0B518460C46504A5F
:1041F000014685B00223121D4E4858F7FBFB0546C9
:104200005C48007801902078002802D0012843D132
:104210002CE100270497039702973E46E178A078A7
:10422000FCF71CFF002835D061792079FCF716FFD8
:1042300000282FD0E179A079FCF710FF002829D0C1
:10424000617A207AFCF70AFF002823D0607B0028DF
:1042500005D0E17BA07BFCF701FF00281AD0E178B4
:10426000A078FEF73CFE61792079FEF738FEE1790F
:10427000A079FEF734FE617A207AFEF730FE607B8B
:10428000002803D0E17BA07BFEF729FEA078002860
:1042900003D005E0FF20288090E1E07800281AD0C4
:1042A0002079002802D16079002814D0A079002854
:1042B00002D1E07900280ED0207A002802D1607A5D
:1042C000002808D0607B00280AD0A07B002807D1F6
:1042D000E07B002804D1274901200870FEF7D2FDB9
:1042E000E078FFF7C8F8002800D007886079FFF76A
:1042F000C2F8002801D000880490E079FFF7BBF8ED
:10430000002801D000880390607AFFF7B4F80028F5
:1043100001D000880290E07BFFF7ADF8002800D0C4
:1043200006881548217A4171617A817126E0000082
:104330000DFE000001080000F567FC07FC8CFC077F
:10434000C00000408010004000E100E080E200E09A
:1043500000016209003000402C68FC07F667FC078A
:10436000FC67FC071C8DFC0754BAFC0700770100B2
:1043700058B9FC071F8DFC075C67FC07FDF797FC2D
:10438000002000900322E178A0781C231202FCF7A1
:104390003EFE00200090617920791A230022FCF76C
:1043A00036FE002000900322E179A0791B2312023F
:1043B000FCF72DFE012000900322617A207A1D2354
:1043C0001202FCF724FE607B002808D00020009039
:1043D0000122E17BA07B00235202FCF718FE6078EB
:1043E000012805D1637A227AE17AA07AFFF725F8CD
:1043F000FB48FDF71DFD627A217AA07AFFF72BF8C2
:104400002880607B00280DD000200090FF20F53030
:104410000099491C00918142FADBE17BA07BFCF70B
:1044200013FE2880E078FFF726F8002800D00780E8
:104430006079FFF720F8002801D004990180E07925
:10444000FFF719F8002801D003990180607AFFF77F
:1044500012F8002801D002990180A07BFFF70BF829
:10446000002800D00680FDF7E5FBA7E000200290C1
:104470000746064661792079FCF7F0FD002800D157
:1044800008E7E178A078FCF7E9FD0028F8D0607B28
:10449000002805D0E17BA07BFCF7E0FD0028EFD0F1
:1044A00061792079FEF71BFDE178A078FEF717FD12
:1044B000607B002803D0E17BA07BFEF710FD207914
:1044C000002802D1607900280ED0A078002802D1FF
:1044D000E078002808D0607B00280AD0A07B002864
:1044E00007D1E07B002804D1BE4901200870FEF707
:1044F000C9FCE078FEF7BFFF002801D000880290D9
:104500006079FEF7B8FF002800D00788A07BFEF78F
:10451000B2FF002800D00688B349207B8881084676
:10452000FDF7CAFAE178A07809230022FCF74FFDD5
:10453000617920790A230022FCF749FD607B00287D
:1045400008D0002000900122E17BA07B00235202D2
:10455000FCF75DFD6078012803D1E17AA07AFEF7CF
:1045600057FF9F48FDF764FCA07AFEF73BFF2880C9
:10457000607B00280DD000200090FF20F5300099CE
:10458000491C00918142FADBE17BA07BFCF75CFDDA
:104590002880E078FEF76FFF002801D002990180A3
:1045A0006079FEF768FF002800D00780A07BFEF747
:1045B00062FF002800D00680FDF7E4FA89490198DF
:1045C0000870FEF75FFCFEF7D8FC28464BF70AF8A8
:1045D00000205BE4F0B518460C46014689B0012383
:1045E000824A834858F706FA0027029705902078F8
:1045F0000190A678E0780090257960790690384699
:104600000199FCF72BFD002800D1012760780028D4
:1046100006D0012806D0022807D0032811D107E0D0
:10462000002407E0FF24013404E00124640201E0D7
:1046300003242402012E04D80698642801D8002FF0
:1046400001D0FF212DE001990298FEF748FC019965
:104650000298FEF701FD002D57D000990020654C0F
:1046600000290CD00129ECD103221723120200905B
:104670000199FCF7CCFC002E1AD0012219E06188C8
:1046800049084900618000230122520200900199EB
:1046900044E0012200E0002201990298FCF7CAFCE4
:1046A00000210598017005984AF79CFF002099E5C4
:1046B000002201990298FCF7BDFC4F490868009060
:1046C00005200007828808231A43828082886B466F
:1046D00092081B7892001A438280886803906B4688
:1046E000069858734868089008A8FDF717FD7D20C4
:1046F000C00068434149FDF721FD03A8FDF729FDEE
:104700006088012108436080CAE70098012800D032
:10471000002000900023224601990298FCF777FCC4
:10472000002EB8D0B5E770B518460E462F4A0146A0
:104730000123521C2E4858F75DF9367804460025AF
:1047400031462846FCF78AFC002809D03146284625
:10475000FCF77AFC207020464AF744FF0020B6E4BC
:10476000FF20F7E770B518460D46204A014664233E
:10477000921C1F4858F73EF90446642229465AF70E
:10478000BBFC20464AF72EFF0020A0E4F8B51846EF
:104790000E46164A01460123D21C154858F72AF93D
:1047A000317801240025052935D0042933D0032987
:1047B00031D002292FD001292DD000292BD004700F
:1047C0004AF710FF49F7C0FB00950098401C009085
:1047D000C828FADB377808220B260948094913E074
:1047E000307500001F8DFC076467FC0712FE000097
:1047F00001080000203400508C65FC0780841E00F6
:104800001D8DFC071E8DFC073B005AF7C9FC0616E0
:10481000120E0B08060B0570D2E71A220AE004708C
:104820000D700EE002700E700BE011220270062275
:1048300006E0342202700C7003E06822027003224A
:104840000A700322097800783DF730FF00203DF719
:1048500089FF3DF74FFF0020F8BDF8B518460E461A
:1048600001460123C34AC44858F7C4F8009034787D
:10487000002576782F46012E00D90125214638469D
:10488000FCF7ECFB002800D1012521463846FEF755
:1048900026FB002C02D1B94901200880002D03D04D
:1048A0000098FF21017007E0B5480770B548047013
:1048B000B5480670FEF719FE00984AF793FE0020EF
:1048C000F8BDF8B5AB4A19460123521EAA4858F75D
:1048D00091F8AE494A880123D243D207D417641C09
:1048E00010D14A881A434A804A887825AA43283238
:1048F0004A804A8806252A434A80A54D0222521C36
:10490000AA42FCDB4A88FF27D207002A20D0A14A0E
:104910005588538013880825AB43138013889B0860
:104920009B009B1C1380138804252B4313800023BA
:1049300006E0FF260B3602255B1C6D1CB542FCDB36
:1049400015886D0701D5642BF3DB1288520701D55A
:10495000077001E000220270002C03D14A8852083F
:1049600052004A804AF73EFE0020F8BD814A10B549
:1049700019460123521C804858F73CF80021017069
:104980004AF730FE002010BD7A4A10B519460123BF
:10499000921D794858F72EF8002101704AF722FE3F
:1049A0007D49082048807D48012141800521018002
:1049B00001880906090EFBD1002010BD10B518466C
:1049C0000C466C4A01460123121D6B4858F712F839
:1049D000002101704AF706FE2078FDF74CFE3DF7F6
:1049E0002FFE002010BD70B518460D46614A0146E5
:1049F0000123521D604857F7FDFF04460020207038
:104A00002878002800D00120FEF7DDFD20464AF777
:104A1000E9FD0020A3E670B518460D46554A01464B
:104A20000123D21D544857F7E5FF04465C49287816
:104A30000870FEF727FA0020207020464AF7D2FDC2
:104A400000208CE6F8B50E46069C01680746002556
:104A50000819904201D901250FE0002B07D03068DA
:104A600002199A4200D9022522465AF745FB3868B6
:104A7000001938603068001930602846F8BDF0B57C
:104A800087B004460390C818049102901088154618
:104A900007190020002927D0022000903B4603A9D7
:104AA00004A8029AFFF7CEFF002818D104983B46CD
:104AB0000678A01C03900120009003A904A8029A84
:104AC000FFF7C0FF00280AD1B006000EE11C0391D9
:104AD00000903B4603A904A8029AFFF7B3FF03998D
:104AE000091B298007B0F0BD88211180FAE7F0B5D5
:104AF00087B00646C81802AF43C71088154680190C
:104B0000019000200C46002924D00127009704A919
:104B100003A8019B029AFFF795FF002816D1601C9D
:104B20000390009704A903A8019B029AFFF78AFF4C
:104B300000280BD16078A41C8006000E009003941E
:104B400004A903A8019B029AFFF77CFF0499891B23
:104B50002980C7E700211180C4E7002809DBC106CE
:104B6000C90E012088400F490860BFF34F8FBFF383
:104B70006F8F704717FE000001080000000300500F
:104B8000F767FC07F867FC07F967FC07200000508F
:104B9000552308000016005000330050003100502B
:104BA0001F8DFC0780E100E0F0B4134602460025AB
:104BB00028462C4C2C4E0AE0C700E75B9F4205D1EB
:104BC000C00000194468002C11D103E0401C377864
:104BD000B842F1DB0020254C254E0DE0C700E75B15
:104BE0009F4208D1C00000194468002C07D0A44699
:104BF000F0BC18466047401C3778B842EEDB2846C8
:104C0000F0BC7047F8B5FF222D321A491A485AF7FE
:104C100073FA0020184B1949194C08E00C22424342
:104C2000D5181219C4CAFF352D35C4C5401C0A78E1
:104C30009042F3DB0020134A0CE00C780C2524187A
:104C40006C43114E4543AD19E418E0CDFF342D34CB
:104C5000E0C4401C1478A042EFDB0C483A21C36248
:104C60004185F8BDB465FC07C465FC079864FC0782
:104C70008865FC0738FBF107288DFC07B065FC0749
:104C80009865FC079464FC072C63FC0700BAFC07DA
:104C900010B51946FD22022312020E4857F7AAFE4C
:104CA00090214170002101704AF79CFC002010BD4A
:104CB00010B519460323084A064857F79BFE912171
:104CC0004170FF218170002101704AF78BFC0020A8
:104CD00010BD00000108000001FD0000F8B5074606
:104CE00001200023024600901946032044F78AFB66
:104CF0000446022180300170FF4DFE482A68438837
:104D00001146FF31F7310B8680884886FB48066ADA
:104D10000123DB069E431E430662FF320020FF3262
:104D2000383250829082D0821D200882F448488414
:104D3000F448C882F448088300204882384644F783
:104D4000A1FE01462868FF30F730C28B920992011C
:104D50000A43C283ED48416800208847002C02D0F6
:104D6000204643F738FF2046F8BDFFB58BB0064616
:104D700016980027022821D00D98018814988142A6
:104D800078D37188084640383F2802D8159850F7E4
:104D900035FF0C98361D0088149A80190E995AF721
:104DA000ABF90C980188149808180C9908800D9894
:104DB00001881498081A0D9908805CE100200E9D66
:104DC000079069782C78090221433180E978AC7822
:104DD0000902214371808C46403904242D1D02466E
:104DE00003468E46402900D32878614604291FD007
:104DF000052914D0062918D070463F283DD81598AB
:104E000050F7FCFE0006000E04D0C148008D0006DD
:104E1000C00F30D002230120BE4A002712E069787B
:104E200000290FD0BC4A17230CE0BC4A0F2309E02D
:104E3000522802D0D22802D002E0142000E015202F
:104E4000B74A1F23002A1AD0984218D2800010585F
:104E50000490002813D000200890059070884038F6
:104E6000402803D32878052430716D1C701D0090F4
:104E70000498B5E0FEE03027F0E03327EEE07088DC
:104E8000042872D10627E9E0522862D00CDC4B28B6
:104E90003FD004DC41286AD0422858D111E04C2888
:104EA00020D0502853D140E0632830D004DC57286C
:104EB00018D061284BD19BE06C2864D0772846D16C
:104EC00009E00098297801700098641C401CA4B285
:104ED0006D1C009081E00498401C049001780898B3
:104EE00081427AD10098A41C401C41084900881CCA
:104EF000009068782A780002104308800599AD1C5C
:104F0000A4B2002969D008900020059065E0012036
:104F1000FBE71022294600985AF7EEF80098103463
:104F20001030A4B21035009057E02046403014995C
:104F3000039088420BD84022294600985AF7DCF8A3
:104F40000098403000900398403584B245E0342703
:104F500043E00822294600985AF7CEF80098083412
:104F60000830A4B20835009037E068E0FFE7062279
:104F7000294600985AF7C0F80098A41D801DA4B2D5
:104F8000AD1D009029E01498001B80B2039030887A
:104F9000001B001D81B2012007900498401C049062
:104FA0000098401C40084000009004980078572862
:104FB0001CD04228CBD100980170090A417000989A
:104FC0002946801C0090039A5AF796F80398039993
:104FD000201884B20098401800900498401C049057
:104FE000007800281ED0002F17D01BE04908E2E708
:104FF0001498001B81B200980391401C40084000A7
:10500000009001200A460790294600985AF774F844
:105010000399601884B20098DDE70D990988A142D0
:1050200000D331E70D980088A04208D3049909788D
:10503000002904D10799002903D1A04201D03427C7
:105040000CE00D99001B08800C9801880098801BCB
:10505000001F08180C99002F08800CD070880428B5
:1050600009D0062807D04038402804D30E9840794C
:10507000707100E0342738460FB0F0BDFFB581B045
:105080001F4616460C46104657F7FAFE00257F28A5
:1050900002D02189062909D03B4632462146019893
:1050A00051F73FF90546284605B0F0BDC00601D5C9
:1050B0000225F8E720780028F5D1300AA11D3DF738
:1050C000C8FAF0E7F1B598B018983DF7C0FC04466F
:1050D000189805210079134A4006C00F09906846C8
:1050E0000184618B08460A38904276D2E08A06280D
:1050F00073D319E030BCFC074CB9FC07C00000407A
:1051000010800000294100007671000058BFFC07A4
:1051100048BEFC073803F2074003F2079C03F2077E
:10512000D803F207770C00001922D201904254D81C
:10513000228BFF23F5339A424FD8521C9300D2188A
:105140004243521C0A23521059438A4245DC217FB4
:1051500000290CD1617F002909D1A17F002906D146
:10516000E17F002903D12021095DC90635D02746FA
:1051700020377978C906C90E491F0C292DD2A18A7A
:1051800081422AD8E17C002927D0421E082A01D971
:10519000082000E0401E81421FD8684641F718FDF4
:1051A00000281AD1FE4D0622286221460BA859F785
:1051B000A3FFA8792E46803E00287DD06079800923
:1051C00001280BD00BA8099947F7D1FF010003D0A4
:1051D0003820405C002870D09CE009E1F06A807AB9
:1051E000012808D0042806D00BA848F72DF828621B
:1051F00000284ED054E0686A06220BA9323059F7D5
:105200009FFF002806D00BA848F71EF82862002848
:1052100002D012E0686AF9E700210BA848F72AF8E3
:105220002862F16A897A012905D18B071A68490633
:105230008A430A431A60002811D0F16A286A0622BC
:105240002530103159F77CFF002808D1286AF16A0F
:105250002030C07AC97B884201D1286A1EE0D1483B
:10526000D1490088C96880B20622504308183DF72A
:10527000F3FB014614A80622023059F73DFF13AA9A
:1052800000213C203DF7B5FE0121B06D43F7DCF86D
:10529000AAE011A90BA847F7EDFF2862002839D032
:1052A00001460A9006220FA8253159F725FF0A99D1
:1052B00008AA2031C97A01E042E025E00FA847F7AB
:1052C00039FE002812D0286A2030C07A002809D17F
:1052D0006846B649008C46F7A0FD08AA0121B348EC
:1052E00047F728FE68460BA9008C0AE008AA0121AE
:1052F00011A847F71FFE00280CD0296A6846008CC9
:10530000323146F7A0FD05E00A18527D002A08D088
:1053100010286DDBF06A407A022806D0032804D0FA
:105320000EE0401C1028EFDBF4E76846008C0528EF
:1053300006D308AA0BA8099947F7FCFD002857D007
:1053400000226946204647F79EFE002850D1F06AA9
:10535000407A02280BD0032809D00023684602882F
:105360000BA8099947F7B0FE002802D02FE00123CF
:10537000F4E7E18A68460181218B4181618B81815B
:10538000787806224109684681757878C106C90E89
:105390006846417521460E3059F7AEFE18980079DF
:1053A0004006C10F684601750388214602A8B26D08
:1053B00042F7F0FB0146B06502A83DF768FE002009
:1053C000B065214668461C31008841F754FC44F71B
:1053D000D3FC734C2034207A002805D0002109200A
:1053E00057F791FE002020720021084657F733FD41
:1053F00019B0F0BDF8B56E4C064685000F466059F1
:105400004C21095C24290ED140691022791D2E30CF
:1054100059F772FE61592520403108730022114668
:1054200030464FF73EFD60594C21095C0C291FD1D5
:1054300040691022791D2E3059F75EFE60595F21B8
:105440004069095C09072DD401462E3110221E3017
:1054500059F776FE00280CD06059092140300173BD
:10546000304650F73BFA0146002230464FF798F895
:10547000F8BD0421684601706A46052130464FF7A1
:1054800039FA684601786020014368460170304669
:1054900050F724FA014668460278012330464FF758
:1054A00094F9F8BD304650F719FA012809D060592F
:1054B0000721403001730022114630464FF7F1FCBE
:1054C000F8BD615900204969C031887160590421D3
:1054D000426930461E324FF70DFA6059416940313A
:1054E000897F002907D01A214030017300213046FE
:1054F0004FF761FDF8BD1B214030017330464FF777
:10550000AFFDF8BDF8B52A4C05468600A0594C22DF
:10551000125C192A11D140224D30491D59F7ECFD7A
:10552000A059402223494D3059F70AFE002805D0E2
:1055300020492846203956F76EFFF8BD0B216846F2
:1055400001706A46052128464FF7D4F9684601786C
:105550006020014368460170284650F7BFF90146B4
:1055600068460278012328464FF72FF9F8BDFFB5AA
:1055700081B003980C46060A002557F781FC0028E5
:1055800027D0132825D0142823D00B48B700C059A2
:105590002030407BC00637D5039857F771FC0DE0EB
:1055A00030BCFC0768B9FC0760BBFC0750F5F1078D
:1055B0003CBEFC07FCBDFC0778BBFC0715280CD0E3
:1055C000A0793DF737FA304642F7D2FA032806D0E1
:1055D00015E0A0793DF72EFA1FE002251DE0A8484E
:1055E000C0592030407B400704D53D2130463DF76F
:1055F0001FFF04E03D22002130463DF728FF3D21FA
:10560000304641F7FDFA08E0204610389D490181F7
:105610004681204649F7E6FF0125284644E5F8B5CE
:1056200010460D46140A57F72BFC010030D0944861
:10563000A200835801271E8BBF023E431E831329FD
:1056400026D0142924D0152911D080582D21095C89
:105650000123CA06002A0CDA0246A032967D002EEB
:1056600007D093753D21204641F7CAFA10E0022089
:10567000F8BD090703D50021A0308175F7E7A030F8
:10568000837520463EF754FC294620463EF788FCA9
:105690000020F8BDFFB581B01546170A104657F730
:1056A000EFFB002837D0132835D0142833D0290A2F
:1056B0008C00734E152815D0FF202946033057F76C
:1056C00022FD30592D21095CC90603D5A030C07DCB
:1056D00000280DD03D026D1CA8B257F7D1FB192848
:1056E0000BD00EE030590121A030C1750220DBE45F
:1056F0003D21384641F784FA0DE0A8B2012157F761
:10570000AAFB30590122018B520291430183384692
:1057100002993EF745FC0020C6E4F0B558498700E1
:10572000C959002680314A8C8B8C1B2A00D21B223F
:105730008C8B944200D222468A849A4200D0012661
:105740000B8CCD8C1B2B00D21B23CC8B9C4200D20C
:105750002346CB84AB4200D001260B8ECD8D9C46D8
:10576000FF2349339D4201D21C4600E02C460D8D9B
:10577000A54200D325460D86654500D001264C8EF6
:10578000A4468C8D9C4200D21C464B8DA34200D275
:105790001C464C86644500D00126EB080B3B9BB2AF
:1057A0009A4200D213468B86522335495843364BD2
:1057B000CA591C688032D28C0419FF34D2B2013429
:1057C0002286C9591A6880318018FF30498E01300D
:1057D00041863046F0BD2D485222006864308188F1
:1057E000C37E5143284A12688918FF225F32525AF9
:1057F000FF31120AD21A01310B8CD2B2DB0B09D065
:105800000B8C5B045B0C0B84002A03D18088204A3C
:10581000012111547047FFB51746140A81B0184A88
:105820000298A100515840780026194D002907D050
:10583000295D002905D0002803D120463FF75CF8F8
:105840002E553A46049B029901983FF7E6FF2BE458
:1058500010B518220F49104859F74EFC0D4B0F4850
:105860000C3B0ECB0EC00C480D49A03001600D4919
:10587000416009490C482039086010BD704700009C
:1058800078BBFC07060800004CB9FC0784BBFC078A
:10589000E08FFC07D465FC0720000840C000FC072F
:1058A0000459F007490C00BF0700100010B50F495C
:1058B000032057F79EFA0021032057F7CCFA10BDBA
:1058C00010B5044601230A4A00210A4857F792F806
:1058D00009498C4201D1032103E008498C4201D1DE
:1058E0000021017049F77EFE10BD0000EC65FC0749
:1058F00011FC000001080000A5A5A5A5C3C3C3C3F2
:1059000010B53248016B402291430163016B38238B
:10591000994330310163016B06239943091D0163EB
:10592000016B031419430163016B0723DB02194365
:105930000163016B03235B0299430315C9180163DB
:10594000016B130419430163016B0723DB049943C3
:1059500003231B05C9180163016BDB109943130373
:10596000C9180163016BC30599430163016B0723E8
:10597000DB0619430163016B03235B06994313059F
:10598000C918016311492031898A016B0123194328
:105990000163036B81150B430363036B8413234380
:1059A0000363036B0C042343036309480160BFF3E3
:1059B0004F8FBFF36F8F074803681B0A1B02134307
:1059C000036003488038016010BD00008010004073
:1059D00080E100E008E400E010B50C460123FE4A37
:1059E0000021FE4857F706F8FD4A21781170002182
:1059F000017049F7F7FD002010BD10B5F64A0C46BE
:105A00000123521E0021F54856F7F4FFF54A21788C
:105A100011700021017049F7E5FD002010BD10B59F
:105A2000ED4A0C460123921E0021EC4856F7E2FF96
:105A3000ED49A2884A800A462388403AD387E28803
:105A40008A8062880A800021017049F7CBFD00201E
:105A500010BD10B51A4682230021E04856F7CAFF50
:105A60001121017049F7BEFD002010BDDA4A10B5C2
:105A70000123413A0021D94856F7BCFF112101709A
:105A800049F7B0FD002010BDD34A10B50123403ABC
:105A90000021D24856F7AEFF1121017049F7A2FD4F
:105AA000002010BD10B51A4602230021CB4856F73E
:105AB000A1FF1121017049F795FD002010BD10B51F
:105AC0001A4601230021C54856F794FF11210170A1
:105AD00049F788FD002010BD10B51A4601230021AA
:105AE000BE4856F787FF1121017049F77BFD002062
:105AF00010BD10B51A4682230021B84856F77AFF28
:105B00001121017049F76EFD002010BD10B51A4635
:105B100082230021B14856F76DFF00214170112109
:105B2000017049F75FFD002010BD10B51A46012332
:105B30000021AA4856F75EFF1121017049F752FD76
