:0200000407FCF7
:100000004863FD07B900FC07C100FC07D900FC07E5
:1000100000000000000000000000000000000000E0
:10002000000000000000000000000000F100FC07DC
:100030000000000000000000F300FC070552FD076F
:10004000F700FC07F700FC078D51FD079151FD07F4
:100050007150FD07F700FC07F700FC07F700FC07ED
:10006000F700FC07F700FC07F700FC07F700FC07A8
:10007000F700FC07F700FC07F700FC07F700FC0798
:10008000F700FC07F700FC07F700FC07F700FC0788
:10009000B14BFD07F700FC07F700FC07F700FC0772
:1000A0000448854600F054F8004800470B46FD0719
:1000B000C046C0464863FD070F4880470F480047C9
:1000C00004207146084203D0EFF309800C49084729
:1000D000EFF308800A49084704207146084203D01C
:1000E000EFF3098007490847EFF3088005490847FF
:1000F000FEE7FEE7FEE7FEE70901FC07A100FC07BB
:100100000540FD070140FD0710B50F490620088096
:100110000F2000F00CF8012000F009F8002000F09A
:1001200006F8002005210907088062B610BD0028E6
:1001300009DBC106C90E0120884004490860BFF3ED
:100140004F8FBFF36F8F70470034005080E100E0A5
:10015000064C0125064E05E0E36807CC2B430C3C1A
:1001600098471034B442F7D3FFF79EFF9401FC0781
:10017000B401FC0702E008C8121F08C1002AFAD126
:1001800070477047002001E001C1121F002AFBD117
:1001900070470000B401FC070040FD07141B00007D
:1001A0007401FC07C81CFC07145BFD07B4080000C1
:1001B0008401FC07FEE7000005200007018A0422F5
:1001C00011430182018A02221143018201894022E6
:1001D00011430181054A01211160418A01228908E8
:1001E0008900D203114341827047000080E200E0A1
:1001F000F0B5002099B01490044613901690159015
:100200000746064605461790072168460C22C90393
:1002100000F0C9F868460078702879D168464078BF
:100220005228FAD101981190029810906846402205
:100230001290119900F0B7F868468078AA2811D179
:100240006846007870280DD168464078512809D159
:10025000019814906846C07816900298179008A8E4
:100260000678012440221099129800F09CF8684604
:100270008078AA2810D16846007870280CD168468A
:100280004078512808D16846C0781590019813909D
:1002900008A80578029FA41C032C04D0012C0ED0C2
:1002A000022C36D061E016991598FF2901D100285B
:1002B0002FD0FF2801D1002901D0814229D31199E3
:1002C0005D484031149A00F06EF8002E02D0149868
:1002D00000F0F6FC584E00203146149A00F0BAFAAD
:1002E0001799884241D0032C3FD1109930464031B4
:1002F000139A00F058F8002D02D0139800F0E0FC9B
:1003000031460020139A00F0A5FAB84229D12CE01A
:1003100027E0109948484031139A00F044F8002D26
:1003200002D0139800F0CCFC434D00202946139ACC
:1003300000F090FAB84218D0032C16D11199284633
:100340004031149A00F02FF8002E02D0149800F0DB
:10035000B7FC29460020149A00F07CFA17998842CD
:1003600003D00020C04319B0F0BD0020FBE710B55A
:100370008AB005A9684600F01CF8684605AC08A9D3
:1003800000F0F6F80A3002D1204600F078F801209B
:100390002A4900050860BFF34F8FBFF36F8FFFF747
:1003A00027FF0AB010BD08B56B4600F00AF900201F
:1003B00008BDF8B50446012003270E463F02009011
:1003C00008233A460321022000F0C3F90025072341
:1003D0003A4629460220009500F0BBF906233A462A
:1003E00009210220009500F0B4F905230022042120
:1003F0000220009500F0ADF92078F121400840007E
:1004000008400007000F203020706078C721C00826
:10041000C000084060700220A0700320E07065609A
:10042000A560E5602574012065748004B0603146E4
:10043000204600F037F8F8BD0000FC0780E100E03E
:1004400010B5012000F0F3FD0520000200F091FE40
:1004500080B210BD10B5FFF7F3FFC00701D00D202B
:10046000C04310BD70B50024A54DFFF7E9FFC007DC
:1004700004D0641CAC42F8D30020C04370BD0DC84A
:10048000A0490DC170470020704710B500F013FE61
:1004900000F0AAFD002000F0CAFDAB2000F069FECC
:1004A000002010BD70B50C000AD000F0D1FDFFF7A0
:1004B000ECFF050003D12046FFF7E1FF284670BDA1
:1004C0000620C04370BD10B50446FFF7C3FF0028E7
:1004D0001ED100F0ACFD00F0EEFD9F2000F02BFEE1
:1004E000002000F028FE0006000A2060002000F036
:1004F00022FE00062168000C08432060002000F066
:100500001AFE2168C0B20843206000F06DFD002093
:1005100010BD70B5A2B0064684227B4901A801F047
:1005200046F86846FFF7CFFF002815D1009800284D
:1005300014D0411C12D00B21002401AD0C226243C7
:100540005219526882420CD10C2044436019FFF7C3
:1005500096FF285D3070002022B070BD0A20C04395
:10056000FAE7641CE4B28C42E8D30920C043F3E705
:1005700010B50C4600F06CFDFFF787FF002802D194
:100580002046FFF7C6FF10BD10B5FFF763FF002838
:1005900005D100F04CFDB92000F0EBFD002010BDAE
:1005A00010B50446FFF756FF002809D1012000F0DE
:1005B0003EFDE01DF93000F0DCFDFFF753FF0020A9
:1005C00010BDF8B51D4617460C460646FFF742FF1C
:1005D000002836D14B4839198068814202D9001B66
:1005E000286000E02F60022000F021FD00F063FD94
:1005F00003200006204300F09EFD002000F017FDC0
:10060000424C002708E001222146304600F05AFD06
:1006100000F0D2FC36197F1C2146286800F09DFFAF
:10062000B842F0D82146286800F097FF002905D08D
:100630000122304600F046FD00F0BEFC00F0D4FC84
:100640000020F8BD704770B505200007018A86B00C
:10065000022291430182818A0907FCD5418A202226
:100660001143418203260125360208233246032125
:100670000220009500F06DF8002407233246214641
:100680000220009400F065F806233246092102207A
:10069000009400F05EF8052300220421022000945B
:1006A00000F057F818491422843101A800F07FFFA8
:1006B00001A800F0CDFCFFF7E8FEFFF765FF00F0B2
:1006C0009AFC0023324603210220009500F041F8F5
:1006D00000236D022A4619460220009400F039F8E2
:1006E00000232A4609210220009400F032F800235A
:1006F0002A4604210220009400F02BF806B070BDB9
:1007000080841E00145BFD072054FD07FFFF0000DE
:10071000704710B5032800D10420174C4001001980
:10072000490008181A43C28010BD032800D10420D4
:10073000114A4001801801228A40828070470328B4
:1007400000D104200C4A4001801801228A404280D6
:10075000704770B506460498144600280D4630468A
:1007600002D0FFF7ECFF01E0FFF7DFFF224629464A
:100770003046FFF7CEFF70BD0030005038B5012580
:100780006D02009000232A4603210220FFF7E1FFBB
:10079000002423462A46214602200094FFF7D9FF71
:1007A00000232A46092102200094FFF7D2FF0023EC
:1007B0002A46042102200094FFF7CBFF38BD08B57C
:1007C000214D6888012108436880FF2028801F4F41
:1007D00008267E8000F053FE05242407FFF7C7FD9E
:1007E000002828D1C82028807E8000F004FC012049
:1007F000FFF7C4FF164800684001C00D10D0618AA1
:10080000684601800088810889006846891C01804B
:1008100001880120C003014368460180008860828E
:10082000608A6946088008880121C903084369462F
:1008300008800888608200F0DEFB0020FFF79EFF42
:10084000FFF700FFCAE700000031005000330050FE
:100850000000FC0710B5C043064B07E00C7844408D
:100860002406A40D1C59000A6040491C521EF5D2F2
:10087000C04310BDB854FD07FFB583B0002B40D076
:10088000012B7DD10E200825039A10800398458006
:10089000039F00203F1D002D1DDD4A780B781202BA
:1008A0001A438B7852BA12041B021A43CB781A43AC
:1008B0008300FA504C790A792402144362BA8C7985
:1008C000120424022243CC79DB192243801C083114
:1008D0005A60A842E1DBF448009003982E46008855
:1008E0008000001D0190854245DAB0000290C019D9
:1008F0008038C46F2946304600F045FE0B0003D017
:100900001AE00A200425BFE7E848E1B2415C0A0288
:100910002104090E415C090411432202120E825C7B
:1009200012060A43210E405C0099104309780C0618
:1009300044400098401C0090082D12D1042B10D187
:10094000DA48E1B2425C2104090E415C090211431C
:100950002202120E825C12040A43210E405C04063D
:100960001443701B800038580299604078500198F9
:10097000761C8642B9DB03981022FF30E53000E098
:1009800002E0059900F013FE07B0F0BDF0B4044694
:10099000008814348500281F002833DD2D1F2068AF
:1009A000C349C44B02460A40C609DF433E40921B7E
:1009B000C14E4100194032405140FA010E461640E6
:1009C000F709F61BBC4F4A001A403E407240B84E31
:1009D000570016401F40F309F31AB74E33405F40EB
:1009E0000B4678405340414018267B40F141594026
:1009F00042401023DA414A400821C841424004C421
:100A00006D1ECCD1F0BC7047F0B597B0028807924C
:100A100012011018143084460846103000230224B6
:100A200008909D00674602467D1B803A803DD66F48
:100A3000EF6F08387E40D667966FAD6F9B1C6E4097
:100A40009667641EEDD16046103813900020049024
:100A5000079800287EDD401E119010A814900422F3
:100A6000941CA407240F0C59944B2402240E1D5DE2
:100A7000541CD01CA4078007240F000F0C5B0858DF
:100A800096072404360F000E240E8E5D185C1C5D44
:100A90009B5D119F049EBE4279DA06466E40039626
:100AA000370603D576001B277E4000E07600F6B2BD
:100AB000654009962F462E0603D57D001B267540FE
:100AC00000E07D00EDB2059525465D402E0603D57C
:100AD0006D001B26754000E06D00EDB20A951D46C5
:100AE00045402E0603D56D001B26754000E06D00C5
:100AF000EDB21595059E099D75402E0603D56D0036
:100B00001B26754000E06D00EDB2AC460A9E059DC7
:100B100075402E0603D56D001B26754000E06D0064
:100B2000EDB26646AE466E40350603D575001B260F
:100B3000754000E07500EEB23D465D4067467D4081
:100B4000099F75407D40604058407746784070402E
:100B5000059F00E04CE07840039F00045F4063463F
:100B60005F400A9B77405F40039B6340744663404D
:100B7000159C734063402C060443380204431C4315
:100B800093000CA818188038C4670BE0FFE7000634
:100B90002D04284324022043184394000CABE3188F
:100BA000803BD867521E00D05AE70024149B089A55
:100BB000022518468038C66F1398A700C01B8038DE
:100BC000C76F083B7E401746803FFE671E68806FF8
:100BD000083A4640A41C16606D1EEAD11398079A85
:100BE000103813900498401C0490904200DA36E7C5
:100BF00017B0F0BDFFB59BB01B98FF30813000905F
:100C0000446E826EC16E006F25BA00BA1C4616BAD9
:100C10000FBA0390103C3BD4102212A81C9900F08C
:100C2000C6FC1C9810301C90129800BA16900A90BE
:100C3000139801BA149802910B9101BA1598189162
:100C400000BA0C9104900D900AA91B98FFF7DCFEE6
:100C50000A980D99684000BA0E900B98169D704046
:100C600000BA0F900C98029E784000BA109003983A
:100C7000189F41400498039008BA119010220EA9C1
:100C80001D9800F094FC1D9810301D90103CC3D5A9
:100C9000039A009C3BBA12BAE36631BA226728BABB
:100CA000A16660661FB0F0BDB85AFD07B858FD07D1
:100CB00080808080FEFEFEFE1B1B1B1BB859FD07BB
:100CC000F8B5104A04461146002310390E48FFF7C4
:100CD000D3FD0D48FFF75AFE0C4D002C11DB0C4FD5
:100CE000FF2601232A465B0211460748FFF782FFD1
:100CF0003E80FF3CFF35FF3CFF35023C0235002CB7
:100D0000EFDAF8BDE65AFD07205BFD070000FC079F
:100D10000031005081894908490081818189082278
:100D200091438181704710B50C46034601207949F3
:100D300000050860BFF34F8FBFF36F8F002A02D00A
:100D40001846FFF7E7FF58083821734A0840135840
:100D5000002B03D08018406821469847142000F0EB
:100D6000CFF810BD70B56D4E7488002520E06B493A
:100D7000280180394018E10717D08189090609D474
:100D80000189491C8AB24189491C89B28A4201D130
:100D9000012200E0002241064B0F01219940B18061
:100DA0000189491C89B2FFF7BEFF6D1CEDB26408D2
:100DB000002C01D0042DDAD370BD70B54B79CA79FF
:100DC0009C07D207E40F920C2403DB0722431B0D80
:100DD0001A430B791C09240222431C07E40FE40187
:100DE00022439C07E40FA40122435C07E40F640143
:100DF000DB072243DB0E1A430B785C07E40FE400A9
:100E00009B0722435B0F1A4382818D790F2D26D0D9
:100E1000434AF0238418414A002C06D0102C04D0F9
:100E2000202C2BD0302C1AD128E0EFF3108401268F
:100E300086F3108816883606360FAE4203D1158821
:100E40009D431D4315808B7915882D092D011D4368
:100E5000158028E0002200E0012282F310888A68D1
:100E60000280120C4280CA688280120CC2800A8AF8
:100E7000521E42814A88002A19D117E0EFF31084EC
:100E8000012686F3108816883607360FAE4204D145
:100E900016880F25AE432E4316808D7916889E4303
:100EA0002B011E431680002CD6D1D3E70A8A521E8E
:100EB0000281400838221040174A4B691350896953
:100EC00080184160174801688022090A090211430D
:100ED0000160142000F014F870BD40083823184059
:100EE0000D4B1950C01842607047828908239A43FD
:100EF000C9000A438281818901221143818170479F
:100F0000002806DBC106C90E01208840014980394E
:100F10000860704780E100E04863FD0780360050BC
:100F200000CAFFAF14E400E00846B9490A89120775
:100F3000FCD4B8498A68002A00D010477047F8B539
:100F40000C46014600200090B14894460088C00538
:100F5000800F01D0012300E00023AE4D2869828973
:100F60000627BA435E001346334383818180090C10
:100F7000C180641E0481448100226146FFF7ADFFF9
:100F8000686981894022914381818189B9433143D4
:100F9000818169460180090C4180048144810022DD
:100FA0001146FFF79AFF00216869FFF79EFF0121B4
:100FB0002869FFF79AFFF8BD964800698189C9073B
:100FC000FCD17047EFF31080012181F310880521D7
:100FD00009078A880123DB021A438A80002800D08F
:100FE000012080F31088704710B58A484178007856
:100FF000FFF7A5FB10BD10B5EFF31084012080F3BF
:1010000010888348018849084900018005200007AD
:1010100081880122D20291438180FFF7E5FF002CF5
:1010200003D0012080F3108810BD0020FAE7784932
:101030000A88520852000A800A88FF2381339A43A3
:10104000C00102430A8008880122104308807047CB
:10105000F8B504466F4E80783070E0787070FFF716
:10106000C3FFFFF7AFFF2178694D0A07C807520F8A
:10107000400E520009091043C900084361784A072D
:10108000920D4906C90F1043890308432880288917
:101090008008800028810127EF8060687060A06868
:1010A000B060E068F060204600F06FF828883843B0
:1010B00028800020F8BD10B5564841780078FFF729
:1010C00034FB10BDF8B5524B1C881D89E405A40FF4
:1010D000AD08AD001D811D886D0623D4012A05D100
:1010E000012C03D84C4AFFF72AFF1BE00546AC460B
:1010F000002213E000265E801E88B604FCD5002C7A
:1011000012D05E88012C13D09F883F043743664677
:1011100080C6B4460126DE80521C92B28A42E9D3D0
:1011200000F069F80020F8BD5E880670401CF1E709
:101130002E80AD1CEEE7364900220B899B089B00F0
:101140009B1C0B810B88DB059B0F012B01D9030C2A
:101150008B80488008888004FCD50120C8800888DE
:10116000C005800F012801D98888020448888018AA
:10117000704710B50446FFF79EFF2046FFF7DBFFE0
:101180000446FFF731FF204610BD70B50446007CD1
:1011900088B0C00729D0214E1E4D1C222049684628
:1011A0002E6100F004FA69460879617C0007000F9F
:1011B00009010843694608713046FFF7FEFD207CAF
:1011C000C00715D0154810306A46686111790222AF
:1011D0001143FB2211406A4611710D49891C03918C
:1011E0006946FFF7EAFD08B070BD0C4E203ED3E71C
:1011F0000A481038E8E7064801890907FCD40121AC
:101200000288920402D54288C180F9E77047000045
:10121000001200506863FD07754DFD072036005031
:10122000F85AFD0710B50A4880890A49C96A002999
:1012300001D0884710BD042000F001F810BD00283F
:1012400005DBC106C90E01208840034908607047CC
:1012500020130050145DFD0780E200E0534930B4D4
:10126000884201D0012100E00021514A490189183A
:1012700008E0838ADB07DB0F12D00388541C8D68DB
:10128000CC81AB54CA898B899A42F2D382885208A6
:10129000520082808A69002A02D0C88930BC104777
:1012A00030BC7047F8B5414D414E044620890007D7
:1012B000000F062826D009DC012840D002281DD0C6
:1012C0000428F3D12046FFF7C9FFEFE7072828D00D
:1012D0000C28EBD1AC4201D0012000E000204001FD
:1012E00087192046FFF7BAFFA18849084900A18065
:1012F000B9690029DAD0F8898847D7E7204600F095
:1013000023F8D3E72046AC4201D0012100E00021C0
:10131000490189190A69002AC8D0818A9E23194087
:101320000BE02046AC4201D0012100E00021490140
:1013300089190A69002AB9D001219047B6E7F8BD9A
:101340001A48AFE71B48ADE7184930B4884201D0CE
:10135000012100E00021164A490189180EE00389A5
:101360001B069B0F032B1BD0838A9B06DB0F002BD6
:1013700096D0531C0C68CB80A25C0280CA888B88F4
:101380009A42ECD3828802239A4382808288802307
:101390009A4382804A69002A82D0888830BC1047EC
:1013A0007C231B5A9B07DB0FE1E779E70010005015
:1013B0008063FD070011005002480068002800D03B
:1013C00000477047C063FD0718B5164900220A6040
:1013D00005200007448A40231C434482448A9C43DE
:1013E00044824A61104B8B6201231B04CB62048848
:1013F00080231C4304800092521C0092642AFBDB71
:101400000A68D208D2000A6001889943018018BD99
:101410000449002802D0FF20023000E001200860CB
:10142000704700000000F407204F101A08B53E492D
:1014300008803E494A8801231A434A8000220092CC
:101440000099491C00911429FADB052109074B89F1
:101450009B089B005B1C4B814B895B06FCD548803D
:10146000192080010092521C00928242FBDB4889C5
:1014700080088000488148890006FCD508BD38B541
:101480002B4908200880FFF743F92848203040887E
:10149000C046C046254860304188C908C90041801F
:1014A000224D698989050AD54188C2130905090DAC
:1014B0008918418041887822914340314180052438
:1014C00024076088FFF7B2FF688840084000688002
:1014D000184800210160638A402213436382638AB3
:1014E000934363824161144A826201221204C26200
:1014F000208880221043208000910098401C00909A
:101500006428FADB0020FFF783FFFFF75DFFFFF79A
:101510009AF800F013F8A220E0826888E02188435E
:10152000A030688038BD0000C463FD072000005073
:10153000003300500000F407204F101A0520000768
:10154000018A022291430182818A0907FCD5418ADE
:101550002022914311434182704730B50B4601462A
:1015600000202022012409E00D46D5409D4205D3EC
:101570001D469540491B2546954040191546521E6B
:10158000002DF1DC30BD70B500242546002801DABD
:1015900001244042002901DA01254942FFF7DDFF1D
:1015A000AC4200D04042002C00D0494270BD0346FE
:1015B0000B439B0703D009E008C9121F08C0042A87
:1015C000FAD203E00B780370401C491C521EF9D27A
:1015D00070470000010000001130EF000000020021
:1015E000020000001230EF000000040003000000C1
:1015F00000421F0000000200040000001120C20091
:1016000000000200050000001128C20000000200D6
:10161000060000001228C200000004000F000000B5
:101620001160850000000200120000001264C80072
:10163000000004001300000001431F00000004002C
:101640001400000001111F0000000400150000003C
:101650000C441F000000080000000203000000000E
:10166000000000000000000000000000000000007A
:10167000963007772C610EEEBA51099919C46D079F
:101680008FF46A7035A563E9A395649E3288DB0EFA
:10169000A4B8DC791EE9D5E088D9D2972B4CB609DD
:1016A000BD7CB17E072DB8E7911DBF906410B71DBA
:1016B000F220B06A4871B9F3DE41BE847DD4DA1AF3
:1016C000EBE4DD6D51B5D4F4C785D38356986C1324
:1016D000C0A86B647AF962FDECC9658A4F5C01149D
:1016E000D96C0663633D0FFAF50D088DC8206E3B7B
:1016F0005E10694CE44160D5727167A2D1E4033C8D
:1017000047D4044BFD850DD26BB50AA5FAA8B535B3
:101710006C98B242D6C9BBDB40F9BCACE36CD832A2
:10172000755CDF45CF0DD6DC593DD1ABAC30D92649
:101730003A00DE518051D7C81661D0BFB5F4B4214C
:1017400023C4B3569995BACF0FA5BDB89EB8022849
:101750000888055FB2D90CC624E90BB1877C6F2FCE
:10176000114C6858AB1D61C13D2D66B69041DC76C9
:101770000671DB01BC20D2982A10D5EF8985B171A2
:101780001FB5B606A5E4BF9F33D4B8E8A2C9077851
:1017900034F9000F8EA8099618980EE1BB0D6A7FE8
:1017A0002D3D6D08976C6491015C63E6F4516B6BA1
:1017B00062616C1CD83065854E0062F2ED95066C56
:1017C0007BA5011BC1F4088257C40FF5C6D9B065CB
:1017D00050E9B712EAB8BE8B7C88B9FCDF1DDD6228
:1017E000492DDA15F37CD38C654CD4FB5861B24D8E
:1017F000CE51B53A7400BCA3E230BBD441A5DF4A58
:10180000D795D83D6DC4D1A4FBF4D6D36AE969431A
:10181000FCD96E34468867ADD0B860DA732D0444C5
:10182000E51D03335F4C0AAAC97C0DDD3C710550F0
:10183000AA41022710100BBE86200CC925B5685797
:10184000B3856F2009D466B99FE461CE0EF9DE5EE0
:1018500098C9D9292298D0B0B4A8D7C7173DB35991
:10186000810DB42E3B5CBDB7AD6CBAC02083B8ED22
:10187000B6B3BF9A0CE2B6039AD2B1743947D5EA2F
:10188000AF77D29D1526DB048316DC73120B63E35E
:10189000843B64943E6A6D0DA85A6A7A0BCF0EE4BD
:1018A0009DFF099327AE000AB19E077D44930FF078
:1018B000D2A3088768F2011EFEC206695D5762F76F
:1018C000CB67658071366C19E7066B6E761BD4FEAC
:1018D000E02BD3895A7ADA10CC4ADD676FDFB9F989
:1018E000F9EFBE8E43BEB717D58EB060E8A3D6D64B
:1018F0007E93D1A1C4C2D83852F2DF4FF167BBD179
:101900006757BCA6DD06B53F4B36B248DA2B0DD87B
:101910004C1B0AAFF64A0336607A0441C3EF60DF1E
:1019200055DF67A8EF8E6E3179BE69468CB361CB07
:101930001A8366BCA0D26F2536E2685295770CCC2C
:1019400003470BBBB91602222F260555BE3BBAC56D
:10195000280BBDB2925AB42B046AB35CA7FFD7C25E
:1019600031CFD0B58B9ED92C1DAEDE5BB0C2649B4F
:1019700026F263EC9CA36A750A936D02A906099C82
:101980003F360EEB8567077213570005824ABF95F5
:10199000147AB8E2AE2BB17B381BB60C9B8ED29278
:1019A0000DBED5E5B7EFDC7C21DFDB0BD4D2D386CF
:1019B00042E2D4F1F8B3DD686E83DA1FCD16BE8142
:1019C0005B26B9F6E177B06F7747B718E65A088813
:1019D000706A0FFFCA3B06665C0B0111FF9E658FA4
:1019E00069AE62F8D3FF6B6145CF6C1678E20AA04E
:1019F000EED20DD75483044EC2B30339612667A7D4
:101A0000F71660D04D476949DB776E3E4A6AD1AE22
:101A1000DC5AD6D9660BDF40F03BD83753AEBCA9B1
:101A2000C59EBBDE7FCFB247E9FFB5301CF2BDBD1E
:101A30008AC2BACA3093B353A6A3B4240536D0BA27
:101A40009306D7CD2957DE54BF67D9232E7A66B3C4
:101A5000B84A61C4021B685D942B6F2A37BE0BB471
:101A6000A18E0CC31BDF055A8DEF022D637C777BA3
:101A7000F26B6FC53001672BFED7AB76CA82C97D8A
:101A8000FA5947F0ADD4A2AF9CA472C0B7FD93261B
:101A9000363FF7CC34A5E5F171D8311504C723C31F
:101AA0001896059A071280E2EB27B27509832C1A63
:101AB0001B6E5AA0523BD6B329E32F8453D100EDBD
:101AC00020FCB15B6ACBBE394A4C58CFD0EFAAFBA1
:101AD000434D338545F9027F503C9FA851A3408F69
:101AE000929D38F5BCB6DA2110FFF3D2CD0C13EC81
:101AF0005F974417C4A77E3D645D197360814FDC16
:101B0000222A908846EEB814DE5E0BDBE0323A0AF9
:101B10004906245CC2D3AC629195E479E7C8376D7D
:101B20008DD54EA96C56F4EA657AAE08BA78252EA2
:101B30001CA6B4C6E8DD741F4BBD8B8A703EB5662B
:101B40004803F60E613557B986C11D9EE1F898111C
:101B500069D98E949B1E87E9CE5528DF8CA1890D0B
:101B6000BFE6426841992D0FB054BB1652096AD5A1
:101B70003036A538BF40A39E81F3D7FB7CE3398282
:101B80009B2FFF87348E4344C4DEE9CB547B9432D1
:101B9000A6C2233DEE4C950B42FAC34E082EA16619
:101BA00028D924B2765BA2496D8BD12572F8F664F0
:101BB00086689816D4A45CCC5D65B6926C7048506B
:101BC000FDEDB9DA5E154657A78D9D8490D8AB0020
:101BD0008CBCD30AF7E45805B8B34506D02C1E8F49
:101BE000CA3F0F02C1AFBD0301138A6B3A91114185
:101BF0004F67DCEA97F2CFCEF0B4E67396AC74226E
:101C0000E7AD3585E2F937E81C75DF6E47F11A71EB
:101C10001D29C5896FB7620EAA18BE1BFC563E4B24
:101C2000C6D279209ADBC0FE78CD5AF41FDDA833E6
:101C30008807C731B11210592780EC5F60517FA926
:101C400019B54A0D2DE57A9F93C99CEFA0E03B4D55
:101C5000AE2AF5B0C8EBBB3C83539961172B047EC9
:101C6000BA77D626E169146355210C7D0102040878
:101C7000102040801B366CD8AB4D9A2F5EBC63C6DB
:101C800097356AD4B37DFAEFC59106A9214036B8DD
:101C9000A15B512E03D5341200063DAFBA429D9E82
:101CA000B430B422DA802C9FAC4100000400000064
:101CB00005000000021200500000000000000000BB
:081CC00000000000000000001C
:0400000507FC00A153
:00000001FF
